:020000040800F2
:100000000000022075280008512700085327000827
:10001000552700085727000859270008000000004E
:100020000000000000000000000000005B27000846
:100030005D270008000000005F2700086127000816
:10004000C9280008C9280008C9280008C9280008CC
:10005000C9280008C9280008C9280008C9280008BC
:10006000C9280008C9280008C9280008C9280008AC
:10007000C9280008C9280008C9280008C92800089C
:10008000C9280008C9280008C9280008C92800088C
:10009000C9280008C9280008C9280008C92800087C
:1000A000C9280008C9280008C9280008C92800086C
:1000B000C9280008C9280008C9280008C92800085C
:1000C000C9280008C9280008C9280008C92800084C
:1000D000C9280008C9280008C9280008C92800083C
:1000E000C9280008C928000800000000C928000825
:1000F000C9280008C9280008C9280008C92800081C
:10010000C9280008C9280008C9280008C92800080B
:10011000C9280008C9280008C9280008C9280008FB
:10012000C9280008C9280008C9280008C9280008EB
:10013000C9280008C9280008C9280008C9280008DB
:1001400000000000000000000000000000000000AF
:10015000C9280008C9280008C9280008C9280008BB
:10016000C9280008C9280008C9280008C9280008AB
:10017000C9280008C9280008C92800080000000094
:10018000C9280008C9280008C9280008C92800088B
:10019000C9280008C9280008C9280008C92800087B
:1001A000AB030008C9280008C9280008C9280008AE
:1001B000C9280008C9280008C9280008C92800085B
:1001C000C9280008C9280008C9280008C92800084B
:1001D000C9280008C9280008C9280008C92800083B
:1001E000C9280008C9280008C9280008C92800082B
:1001F000C9280008C9280008C9280008C92800081B
:10020000C9280008C9280008C9280008C92800080A
:10021000C9280008C9280008C9280008C9280008FA
:10022000C9280008C9280008C928000800000000E3
:10023000C9280008C928000800000000C9280008D3
:10024000C9280008C9280008C9280008C9280008CA
:10025000C9280008C9280008C9280008C9280008BA
:10026000C9280008C9280008C9280008C9280008AA
:10027000C9280008C9280008C92800080000000093
:10028000C9280008C9280008C92800080000000083
:0802900000000000C92800086D
:1002980010B5054C237833B9044B13B10448AFF3B8
:1002A80000800123237010BD100000200000000012
:1002B8002429000808B5034B1BB103490348AFF3D1
:1002C800008008BD00000000140000202429000858
:1002D800F8B504460D4616462C4B036000234360D0
:1002E8008360C36003615F224261012282618F22C1
:1002F800C2612222026240F20F32426240F20222BE
:10030800826240F21F32C2624FF40372026380F8C5
:10031800343080F8353080F8363000F029FC70BB76
:1003280000222A604FF420716960AA604FF4F073CC
:10033800EB6005202861FF276F61AA614FF4806791
:10034800EF6128626E62A962EB622946204600F0DE
:100358006DFCB8B92268D2F8843023F00103C2F8E2
:10036800843040F2DF11204600F094FC0022114650
:10037800582000F0FFF9582000F00CFAF8BD00F002
:100388009AF8CDE700F097F8E4E700BF00100050B6
:1003980008B50B464FF496220146184602F091FA2A
:1003A80008BD83689A6B12F0010F03D00122DA634B
:1003B800C0F8E4207047000088B02B4BD3F8E02049
:1003C80042F01002C3F8E020D3F8E02002F0100257
:1003D8000192019AD3F8E02042F02002C3F8E0200D
:1003E800D3F8E02002F020020292029AD3F8E0202B
:1003F80042F00402C3F8E020D3F8E02002F004023F
:100408000392039AD3F8E02042F00102C3F8E020F7
:10041800D3F8E02002F001020492049AD3F8E02015
:1004280042F00202C3F8E020D3F8E02002F0020212
:100438000592059AD3F8E02042F00802C3F8E020BC
:10044800D3F8E02002F008020692069AD3F8E020DA
:1004580042F04002C3F8E020D3F8E03003F0400354
:100468000793079B08B070470044025810B504462C
:100478000378072B07D8DFE803F00407060E060603
:10048800181B0123037010BD4168FF20FFF780FF90
:1004980003232370F7E7D0F8E430012BF3D10023CE
:1004A800C0F8E43006230370EDE707230370EAE79A
:1004B80000230370E7E772B6FEE7000000B5CFB08F
:1004C8004C2200213BA802F0FCF92022002133A88D
:1004D80002F0F7F9C022002102A802F0F2F9022086
:1004E80000F006FD00230193324BD96A21F0010187
:1004F800D962DB6A03F0010301932F498B6923F466
:10050800404343F480438B618B6903F44043019378
:10051800019B294B9B6913F4005FFAD002233B939C
:1005280001223E9240223F924493002245920421A8
:10053800469114214791489349934A930C214B9132
:100548004C934D923BA800F0FDFC60BB3F233393D6
:10055800032334930021359109233693402337939D
:1005680038934FF4806239923A9333A801F03EF9F8
:10057800D8B902A84FF000520023CDE9022308237E
:1005880083621922C26202220263426383634FF4C8
:100598004063C36300230364436401F079FB30B90B
:1005A8004FB05DF804FBFFF786FFFFF784FFFFF706
:1005B80082FF00BF000400580048025800B5BBB0D5
:1005C80000F040F8FFF77AFFFFF7F6FEE822002177
:1005D800684602F076F9064A0192002339932CA95D
:1005E80002A8FFF775FE6846FFF740FFFBE700BF6C
:1005F80000000024104B1B780BB90120704710B580
:1006080004464FF47A70B0FBF3F30C4A1068B0FB61
:10061800F3F000F0C3F868B90F2C01D901200AE003
:10062800002221464FF0FF3000F0A4F8044B1C6074
:10063800002000E0012010BD000000200C00002078
:100648000400002010B5032000F082F800F0D2FF6B
:100658000F498B69C3F303230E4AD35C03F01F03CE
:10066800D8408B6903F00F03D35C03F01F0320FA13
:1006780003F3094A1360094B18600F20FFF7BAFF0C
:1006880010B10124204610BD044600F027FBF9E70D
:10069800004402583C290008080000200C000020F3
:1006A800034B1B78034A11680B441360704700BF63
:1006B800000000202C000020014B1868704700BF84
:1006C8002C000020014B1868000C70470010005CDB
:1006D800002807DB00F01F02400901239340024A6B
:1006E80042F82030704700BF00E100E0002804DB3A
:1006F8000901C9B2044B1954704700F00F000901F1
:10070800C9B2024B1954704700E400E014ED00E050
:1007180000B500F00700C0F1070CBCF1040F28BFBA
:100728004FF0040C031D062B0FD9C31E4FF0FF3EDC
:100738000EFA0CF021EA000199400EFA03FE22EAB3
:100748000E0241EA02005DF804FB0023EEE7000018
:100758000649CB6823F4E0631B041B0C000200F479
:10076800E0600343024A1A43CA60704700ED00E0A4
:100778000000FA0510B50446054BD868C0F30220FE
:10078800FFF7C6FF01462046FFF7B0FF10BD00BFC8
:1007980000ED00E008B5FFF79BFF08BD0138B0F198
:1007A800807F0BD24FF0E0235861054AF02182F890
:1007B80023100020986107221A61704701207047B2
:1007C80000ED00E0F0B583B000236BE085685E00C3
:1007D8000324B44025EA0405CC68B4402C43846063
:1007E800456825EA0C054C68C4F300149C402C436A
:1007F800446069E0DD08083550F8254003F0070C2F
:100808004FEA8C0C4FF00F0E0EFA0CFE24EA0E0E77
:100818000C6904FA0CF444EA0E0440F825406BE035
:10082800092400E0002404FA0EF42C430CF1020C15
:10083800694D45F82C404FF0B0442568D44325EA6B
:1008480002064F6817F4801F01D042EA05064FF0F0
:10085800B0452E606D6804EA05064F6817F4001F5E
:1008680001D042EA05064FF0B0456E60D5F88450D5
:1008780004EA05064F6817F4003F01D042EA05066E
:100888004FF0B045C5F88460D5F880502C404E68CC
:1008980016F4803F01D042EA05044FF0B042C2F896
:1008A800804001330A6832FA03F400F092804FF076
:1008B800010C0CFA03FC1CEA0202F2D04C6804F0AA
:1008C8000304013C012C81D94C6804F00304032C77
:1008D8000CD0C4685D004FF0030C0CFA05FC24EA48
:1008E8000C0C8C68AC4044EA0C04C4604C6804F0FE
:1008F8000304022C3FF47EAF04684FEA430E4FF026
:10090800030C0CFA0EFC24EA0C0C4C6804F00304EB
:1009180004FA0EF444EA0C0404604C6814F4403FF2
:10092800BFD02E4CD4F8F45045F00205C4F8F4506A
:10093800D4F8F44004F002040194019C4FEA930CAB
:100948000CF10205244C54F8255003F0030E4FEA2D
:100958008E0E0F2404FA0EF425EA0405204CA0425A
:100968003FF460AF04F58064A04222D004F58064AF
:10097800A04220D004F58064A0421ED004F5806413
:10098800A0421CD004F58064A0421AD004F580640B
:10099800A04218D004F58064A04216D004F5806403
:1009A800A04214D004F58064A0423FF439AF0A2471
:1009B80039E7012437E7022435E7032433E7042421
:1009C80031E705242FE706242DE707242BE7082421
:1009D80029E703B0F0BD00BF0004005800440258E6
:1009E8000000025870B54D680368DC68C4F30B4416
:1009F80025444FEAC21C03EBC213D3F8884004F421
:100A08007044C3F888400B680468E668C6F30B4E68
:100A18007344013304EBC21443EA0543C4F8883035
:100A2800CD680368DC68C4F30A0405EB040E03EB25
:100A3800C213D3F88C4004F47044C3F88C408B681C
:100A48000468E568C5F30A052B44013304EBC214B6
:100A580043EA0E43C4F88C30036803EBC213D3F89F
:100A6800944024F00704C3F89440036803EBC213CE
:100A78000C69C3F8944091F8316091F832508C6950
:100A880091F8303043EA062343EA0543056805EB4D
:100A9800C21E43EA0463CEF89C300EF1840E03684C
:100AA80003EBC213D3F8984024F0FF04C3F898402E
:100AB800036803EBC2134C69C3F89840036803EB5F
:100AC800C213D3F8A050294C2C40C3F8A040CC69DD
:100AD800036803EBC2130D6A2C43C3F8A0400368F4
:100AE80003EBC2134A6AC3F8AC200B69072B05D87D
:100AF800DFE803F03A323436340404380125036859
:100B08006344D3F8B02002F0E022C3F8B0208B6A27
:100B180005FB03F44B680A689B1A05FB03F30733CC
:100B28000268624443EA0443C2F8B030036863448D
:100B3800D3F8B4206FF30A02C3F8B42003686344FF
:100B4800CA6AC3F8B42003686344D3F8842042F027
:100B58000102C3F8842070BD0325D0E70225CEE743
:100B68000225CCE70225CAE70425C8E7F8F8FFFF05
:100B7800002859D010B5044690F8A130002B4ED06B
:100B8800022384F8A1302268936923F070439361AB
:100B980021688A696368A0680343E06803432069A1
:100BA800034313438B616169A369226843EA0143E4
:100BB8009360E169236A226843EA0143D360616A6A
:100BC800A36A226843EA01431361E16A236B22683E
:100BD80043EA0143536194F8350094F836301B0416
:100BE8002168CA6A02F07F42CA622168CA6A43EA77
:100BF800002394F8340003431343CB622268536BF9
:100C080043F0060353632268936943F00103936139
:100C18000020C4F8A400012384F8A13010BD80F896
:100C2800A03000F06DF8ABE701207047F8B590F8F8
:100C3800A030012B2CD004460D461646012780F81B
:100C4800A070022380F8A1304FF0340C0CFB020C8A
:100C58000CF1380C8E46BEE80F00ACE80F00BEE879
:100C68000F00ACE80F00BEE80F00ACE80F00DEF89C
:100C78000030CCF80030324629462046FFF7B2FE55
:100C880023685F6284F8A170002084F8A000F8BD92
:100C98000220FCE790F8A020012A1AD010B40346DD
:100CA800012083F8A000022283F8A1201C68626B4F
:100CB80022F001026263084A116419684A6B024310
:100CC8004A6383F8A100002083F8A0005DF8044B74
:100CD80070470220704700BF0010005082B0074BD9
:100CE800D3F8F42042F00202C3F8F420D3F8F43029
:100CF80003F002030193019B02B0704700440258BD
:100D08002DE9F04F8FB009AD002409940A940B9493
:100D18000C940D946E4BD3F8E42042F00802C3F80B
:100D2800E420D3F8E42002F008020192019AD3F8F3
:100D3800E02042F01002C3F8E020D3F8E02002F0EF
:100D480010020292029AD3F8E02042F02002C3F87F
:100D5800E020D3F8E02002F020020392039AD3F8AF
:100D6800E02042F00402C3F8E020D3F8E02002F0CB
:100D780004020492049AD3F8E02042F00102C3F876
:100D8800E020D3F8E02002F001020592059AD3F89A
:100D9800E02042F00202C3F8E020D3F8E02002F09D
:100DA80002020692069AD3F8E02042F00802C3F83D
:100DB800E020D3F8E02002F008020792079AD3F85F
:100DC800E02042F04002C3F8E020D3F8E03003F01E
:100DD80040030893089B49F67003099302270A9772
:100DE80003260C964FF00E08CDF83480DFF8F8B0E3
:100DF80029465846FFF7E6FC4FF48069CDF8249061
:100E08000A970B940C96CDF8348029463148FFF7A1
:100E1800D9FC40F2C12309930A970B940C96CDF89C
:100E2800348029462C48FFF7CDFC40F27E430993D5
:100E38000A970B940C96CDF8348029462748FFF77B
:100E4800C1FC09960A970B940C9609230D93DFF8B9
:100E58009CA029465046FFF7B5FC4FF48043099300
:100E68000A970B940C96CDF8348029465846FFF71C
:100E7800A9FC4FF4706309930A970B940C96CDF86C
:100E8800348029465046FFF79DFCCDF824900A97F8
:100E98000B940C96CDF8348029461148FFF792FC44
:100EA8004FF4045309930A970B940C96CDF83480A9
:100EB80029460C48FFF786FC224621465820FFF7B2
:100EC80059FC5820FFF766FC0FB0BDE8F08F00BF53
:100ED8000044025800140258000802580000025842
:100EE800000C02580018025800100258000402585A
:100EF800134BDB6813F0040F07D1114BDB6803F0C9
:100F0800070383421AD00120704710B50C4AD368F2
:100F180023F007030343D360FFF7CEFB0446084BD7
:100F28005B6813F4005F07D1FFF7C6FB001BB0F541
:100F38007A7FF4D9012000E0002010BD002070471E
:100F480000480258002800F0398338B50446036881
:100F580013F0010F25D0944A136903F03803926AFD
:100F6800102B15D0182B0FD06368B3F5803F3FD0F6
:100F7800002B53D18C4B1A6822F480321A601A68FD
:100F880022F480221A6038E002F00302022AEBD130
:100F9800854B1B6813F4003F03D06368002B00F0F7
:100FA8000F83236813F0020F00F0A1807E4A1369B3
:100FB800926A13F038035AD0182B55D0E368002BE7
:100FC80000F0DE8078490A6822F0190213430B60AA
:100FD800FFF772FB0546744B1B6813F0040F40F0D3
:100FE800AD80FFF769FB401B0228F4D90320EEE22D
:100FF8006D4A136843F48033136063682BB3FFF7BB
:101008005BFB0546684B1B6813F4003FC9D1FFF72B
:1010180053FB401B6428F5D90320D8E2B3F5A02F71
:1010280009D0614B1A6822F480321A601A6822F4D7
:1010380080221A60E1E75C4B1A6842F480221A6049
:101048001A6842F480321A60D7E7FFF735FB054685
:10105800554B1B6813F4003FA3D0FFF72DFB401B33
:101068006428F5D90320B2E212F0030FA6D14E4B43
:101078001B6813F0040F03D0E368002B00F0A28272
:10108800494A136823F01903E1680B431360FFF71B
:1010980013FB0546444B1B6813F0040F06D1FFF7FA
:1010A8000BFB401B0228F5D9032090E2FFF70AFB4F
:1010B80041F20303984212D82269402A07D03A49DC
:1010C8004B6823F47C3343EA02334B600FE0364A23
:1010D800536823F47C3343F40033536007E0324A07
:1010E800536823F0FE43216943EA01635360236890
:1010F80013F0100F00F088802B4A136903F03803AF
:10110800926A082B56D0182B50D0E369002B00F0B8
:10111800B880254A136843F080031360FFF7CCFAC0
:101128000546214B1B6813F4807F40F08880FFF749
:10113800C3FA401B0228F4D9032048E2FFF7C2FA99
:1011480041F20303984212D82269402A07D016496F
:101158004B6823F47C3343EA02334B60C7E7124AF7
:10116800536823F47C3343F400335360BFE70E4ADB
:10117800536823F0FE43216943EA01635360B6E7ED
:10118800094A136823F001031360FFF795FA05462F
:10119800054B1B6813F0040FA9D0FFF78DFA401B0D
:1011A8000228F5D9032012E20044025802F0030293
:1011B800012AAAD1A14B1B6813F4807F03D0E369ED
:1011C800802B40F00182FFF77DFA41F20303984239
:1011D80012D8226A202A07D098494B6823F0F8438E
:1011E80043EA82634B600FE0944A536823F0F84364
:1011F80043F08043536007E0904AD36823F07C5360
:10120800216A43EA0163D360236813F0080F60D0B2
:101218006369002B49D0894A536F43F00103536730
:10122800FFF74AFA0546854B5B6F13F0020F50D162
:10123800FFF742FA401B0228F5D90320C7E1FFF760
:1012480041FA41F20303984212D8226A202A07D0B1
:101258007A494B6823F0F84343EA82634B60D3E74B
:10126800764A536823F0F84343F080435360CBE752
:10127800724AD36823F07C53216A43EA0163D3603E
:10128800C2E76E4A136823F080031360FFF714FA6D
:1012980005466A4B1B6813F4807FB5D0FFF70CFA3C
:1012A800401B0228F5D9032091E1644A536F23F0CB
:1012B80001035367FFF700FA0546604B5B6F13F0B5
:1012C800020F06D0FFF7F8F9401B0228F5D90320D2
:1012D8007DE1236813F0200F29D0A3699BB1574AF9
:1012E800136843F480531360FFF7E6F90546534B40
:1012F8001B6813F4005F1AD1FFF7DEF9401B0228C0
:10130800F5D9032063E14D4A136823F48053136031
:10131800FFF7D2F90546494B1B6813F4005F06D066
:10132800FFF7CAF9401B0228F5D903204FE12368CB
:1013380013F0040F21D1636A002B00F047813F4A64
:10134800126902F03802182A00F0EE80022B79D0D8
:101358003A4A136823F080731360FFF7ADF9044627
:10136800364B1B6813F0007F00F0DC80FFF7A4F910
:10137800001B0228F4D9032029E1314A136843F4F9
:1013880080731360FFF798F905462D4B1B6813F41B
:10139800807F06D1FFF790F9401B6428F5D9032018
:1013A80015E1A368012B0AD00BBB244B1A6F22F05E
:1013B80001021A671A6F22F004021A6704E01F4A32
:1013C800136F43F001031367A36833B3FFF774F98E
:1013D80005461A4B1B6F13F0020FACD1FFF76CF9DF
:1013E800401B41F288339842F3D90320EFE0052BE4
:1013F80009D0124B1A6F22F001021A671A6F22F0F5
:1014080004021A67E0E70D4B1A6F42F004021A67EC
:101418001A6F42F001021A67D6E7FFF74DF9054641
:10142800064B1B6F13F0020F85D0FFF745F9401BE1
:1014380041F288339842F3D90320C8E000440258A7
:1014480000480258694A136823F080731360FFF755
:1014580033F90546654B1B6813F0007F06D0FFF78C
:101468002BF9401B0228F5D90320B0E05F4B996A9D
:101478005F4A0A40A16AE06A41EA00110A439A6297
:10148800226B013AC2F30802616B0139490289B241
:101498000A43A16B0139090401F4FE010A43E16B17
:1014A8000139090601F0FE410A431A63DA6A22F09B
:1014B8000102DA625A6B6FF3CF02A16C42EAC102F1
:1014C8005A63DA6A22F00C02216C0A43DA62DA6A99
:1014D80022F00202616C0A43DA62DA6A42F480326C
:1014E800DA62DA6A42F40032DA62DA6A42F48022B4
:1014F800DA62DA6A42F00102DA621A6842F080724D
:101508001A60FFF7D9F80446384B1B6813F0007FC0
:1015180006D1FFF7D1F8001B0228F5D9032056E0C1
:10152800002054E0002052E0304A916A106B012BF1
:101538004ED001F00303A26A93424BD1C1F30511C7
:10154800E36A994248D1C0F30802236B013B9A42EF
:1015580044D1C0F34622636B013B9A4240D1C0F3A9
:101568000642A36B013B9A423CD1C0F30660E36B91
:10157800013B984238D11D4B5B6BC3F3CC03A26C83
:101588009A4201D1002022E0184AD36A23F00103CD
:10159800D362FFF791F80546FFF78EF8A842FBD013
:1015A800124A536B6FF3CF03A16C43EAC103536331
:1015B800D36A43F00103D362002008E0012070479A
:1015C800012004E0012002E0012000E0002038BDF5
:1015D8000120FCE70120FAE70120F8E70120F6E7FF
:1015E8000120F4E70120F2E70120F0E70044025867
:1015F8000CFCFFFF754B1B6903F03803102B00F040
:10160800DE80182B0FD0002B40F0DB806F4B1B685F
:1016180013F0200F00F0D7806C4B1B68C3F3C10395
:101628006B48D840704710B4684B9A6A02F00302BE
:101638009C6AC4F30510D96A01F001015B6BC3F31E
:10164800CC0301FB03F307EE903AF8EE677A14F443
:101658007C7F77D0012A4AD0022A76D0002A40F02F
:1016680091805A4B1B6813F0200F23D057490A6802
:10167800C2F3C102564BD34007EE103AF8EE476A60
:1016880007EE100AB8EE476A86EE867A0B6BC3F34C
:10169800080306EE903AF8EE666A9FED4E6A67EE2A
:1016A800867A76EEA77AF7EE006A77EEA67A27EEC4
:1016B800277A38E007EE100AF8EE476A9FED466A87
:1016C80086EE267A414B1B6BC3F3080306EE903A6D
:1016D800F8EE666A9FED3F6A67EE867A76EEA77A3D
:1016E800F7EE006A77EEA67A27EE277A1BE007EE78
:1016F800100AF8EE476A9FED396A86EE267A334B70
:101708001B6BC3F3080306EE903AF8EE666A9FED8A
:10171800316A67EE867A76EEA77AF7EE006A77EE98
:10172800A67A27EE277A294B1B6BC3F3462301338E
:1017380007EE903AF8EE677AC7EE276AFCEEE67A8B
:1017480017EE900A5DF8044B704707EE100AF8EEA2
:10175800476A9FED236A86EE267A1C4B1B6BC3F300
:10176800080306EE903AF8EE666A9FED1A6A67EE8D
:10177800867A76EEA77AF7EE006A77EEA67A27EEF3
:10178800277AD0E707EE100AF8EE476A9FED136A4A
:1017980086EE267A0D4B1B6BC3F3080306EE903AD0
:1017A800F8EE666A9FED0B6A67EE867A76EEA77AA0
:1017B800F7EE006A77EEA67A27EE277AB3E70948AC
:1017C8007047094870470248704700BF00440258F4
:1017D8000090D003000000390024744C0024744A9F
:1017E80020BCBE4B40787D0100093D00002800F078
:1017F800328170B50D4604469B4B1B6803F00F03FE
:101808008B420BD2984A136823F00F030B431360E3
:10181800136803F00F038B4240F01F81236813F015
:10182800040F0CD02269914B9B6903F070039A4214
:1018380005D98E498B6923F070031A438A6123689E
:1018480013F0080F0CD06269884BDB6903F0700352
:101858009A4205D98549CB6923F070031A43CA61B6
:10186800236813F0100F0CD0A269804BDB6903F4D6
:10187800E0639A4205D97D49CB6923F4E0631A43B2
:10188800CA61236813F0200F0CD0E269774B1B6AFA
:1018980003F070039A4205D974490B6A23F0700368
:1018A8001A430A62236813F0020F0CD0E2686F4BE8
:1018B8009B6903F00F039A4205D96C498B6923F0A1
:1018C8000F031A438A61236813F0010F41D0674A56
:1018D800936923F47063A1680B4393616368022BD7
:1018E8000AD0032B27D0012B2CD0604A126812F0A3
:1018F800040F06D10120ADE0126812F4003F00F099
:10190800AE805A490A6922F0070213430B61FEF7B9
:10191800D3FE0646554B1B6903F038036268B3EBE8
:10192800C20F16D0FEF7C8FE801B41F288339842DA
:10193800F0D903208EE04D4A126812F0007FE0D102
:10194800012087E0494A126812F4807FD9D101202A
:1019580080E0236813F0020F0CD0E268434B9B69C8
:1019680003F00F039A4205D240498B6923F00F0315
:101978001A438A613C4B1B6803F00F03AB420AD938
:10198800394A136823F00F032B431360136803F0DD
:101998000F03AB4265D1236813F0040F0CD0226902
:1019A800324B9B6903F070039A4205D22F498B6929
:1019B80023F070031A438A61236813F0080F0CD0D0
:1019C80062692A4BDB6903F070039A4205D2274902
:1019D800CB6923F070031A43CA61236813F0100F10
:1019E8000CD0A269214BDB6903F4E0639A4205D26B
:1019F8001E49CB6923F4E0631A43CA61236813F0D4
:101A0800200F0CD0E269194B1B6A03F070039A424D
:101A180005D216490B6A23F070031A430A62FFF7CE
:101A2800E9FD12498B69C3F30323114AD35C03F020
:101A38001F03D8408B6903F00F03D35C03F01F0327
:101A480020FA03F30B4A13600B4B18600B4B186812
:101A5800FEF7D0FD70BD012070470120FAE7012094
:101A6800F8E70120F6E700BF0020005200440258C2
:101A78003C290008080000200C0000200400002079
:101A8800404B9B6A03F00303032B79D070B50546DE
:101A98000E463C4A136823F080631360FEF70CFE81
:101AA8000446384B1B6813F0006F06D0FEF704FE9F
:101AB800031B022BF5D9032070BD324B9A6A22F41E
:101AC8007C32296842EA01329A626A68013AC2F3B2
:101AD8000802A9680139490289B20A43E96801394B
:101AE800090401F4FE010A4329690139090601F0D4
:101AF800FE410A439A63DA6A22F0C00269690A431E
:101B0800DA62DA6A22F02002A9690A43DA62DA6A3A
:101B180022F01002DA62DA6B6FF3CF02E96942EA67
:101B2800C102DA63DA6A42F01002DA62C6B91A460A
:101B3800DB6A43F40023D362124A136843F08063DC
:101B48001360FEF7B9FD04460E4B1B6813F0006FD7
:101B580014D1FEF7B1FD001B0228F5D90320ABE72D
:101B6800012E05D0074AD36A43F40013D362E3E792
:101B7800044AD36A43F48013D362DDE700209BE76D
:101B88000120704700440258404B9B6A03F003034E
:101B9800032B79D070B505460E463C4A136823F0EE
:101BA80080531360FEF788FD0446384B1B6813F01A
:101BB800005F06D0FEF780FD031B022BF5D903203A
:101BC80070BD324B9A6A22F07C72296842EA01524F
:101BD8009A626A68013AC2F30802A968013949029F
:101BE80089B20A43E9680139090401F4FE010A438C
:101BF80029690139090601F0FE410A431A64DA6AC3
:101C080022F4406269690A43DA62DA6A22F40072ED
:101C1800A9690A43DA62DA6A22F48072DA625A6CD3
:101C28006FF3CF02E96942EAC1025A64DA6A42F400
:101C38008072DA62C6B91A46DB6A43F48003D3625B
:101C4800124A136843F080531360FEF735FD0446CB
:101C58000E4B1B6813F0005F14D1FEF72DFD001B1F
:101C68000228F5D90320ABE7012E05D0074AD36A2D
:101C780043F08073D362E3E7044AD36A43F4000372
:101C8800D362DDE700209BE701207047004402583B
:101C9800F8B50446036813F0006F30D0836EB3F5CF
:101CA800001F26D00ED8ABB1B3F5801F07D1022193
:101CB8000830FFF7E5FE054695B12E4621E00126DE
:101CC80035461EE0B3F5401F01D1002508E0012686
:101CD800354616E09A4AD36A43F40033D3620025A6
:101CE800974A136D23F44013A16E0B431365002626
:101CF80007E002212830FFF747FF0546DCE700260A
:101D08003546236813F4807F14D0A36D042B31D893
:101D1800DFE803F0032229080800894AD36A43F45C
:101D28000033D3624DBB864A136D23F00703A16DC0
:101D38000B431365236813F4007F3FD0E36D802BBA
:101D48002ED01FD833B3402B19D1002104F108003D
:101D5800FFF796FE054629E0002104F10800FFF789
:101D68008FFE0546DEE7002104F12800FFF70CFF8F
:101D78000546D7E701263546DCE72E46DAE7012691
:101D880035461BE0C02B11D0B3F5807F0ED001265D
:101D9800354613E06A4AD36A43F40033D36205E058
:101DA800002104F12800FFF7EFFE0546DDB9644A7B
:101DB800136D23F4E073E16D0B431365236813F48B
:101DC800806F33D0D4F8A830B3F5800F1FD00FD868
:101DD800BBB1B3F5001F08D1002104F10800FFF7DB
:101DE8004FFE054619E02E46E8E7012635461DE078
:101DF800B3F5C00F11D0B3F5000F0ED0012635464C
:101E080014E04F4AD36A43F40033D36205E000215B
:101E180004F12800FFF7B8FE0546E5B9484A936D76
:101E280023F46003D4F8A8100B439365236813F4D4
:101E3800006F34D0D4F8AC30B3F1007F1FD00FD886
:101E4800BBB1B3F1807F08D1002104F10800FFF78E
:101E580017FE054619E02E46E8E7012635461EE03E
:101E6800B3F1407F11D0B3F1806F0ED00126354613
:101E780015E0334AD36A43F40033D36205E0002106
:101E880004F12800FFF780FE0546002D33D12C4AC7
:101E9800936D23F0E063D4F8AC100B43936523688B
:101EA80013F0007F13D0E36C202B2ED028D833B149
:101EB800102B22D1224AD36A43F40033D3625DBB8C
:101EC8001F4AD36C23F03003E16C0B43D3642368BF
:101ED80013F4805F46D0236EB3F5005F32D020D86C
:101EE80043B3B3F5805F19D1002104F10800FFF76F
:101EF800C7FD05462CE02E46D1E701263546E6E724
:101F0800302BDCD001263546E1E7022104F1080038
:101F1800FFF7B6FD0546D2E72E46D8E70126354637
:101F280020E0B3F5405F13D0B3F5804F10D0012601
:101F3800354617E0024AD36A43F40033D36207E018
:101F480000440258002104F12800FFF71DFE054651
:101F58003DB9704A136D23F4E043216E0B431365BA
:101F680000E02E46236813F4005F17D0636EB3F5C4
:101F7800003F4FD042D843B1B3F5803F3BD1012158
:101F880004F10800FFF77CFD0546002D49D1614AA0
:101F9800136D23F4E023616E0B431365236813F478
:101FA800804F19D0D4F8B030B3F1005F4AD03DD893
:101FB80043B1B3F1805F36D1012104F10800FFF786
:101FC8005FFD0546002D44D1524A936D23F0E0434E
:101FD800D4F8B0100B439365236813F4004F47D02F
:101FE800236FB3F1805F36D0B3F1005F4BD0BBB342
:101FF800012635463CE001263546CFE7B3F5802F6C
:10200800C3D0B3F5A02FC0D0B3F5403FBDD0012653
:102018003546C3E7012104F12800FFF7B5FD054661
:10202800B3E72E46BAE701263546D5E7B3F1804F28
:10203800C8D0B3F1A04FC5D0B3F1405FC2D00126DC
:102048003546C9E7012104F12800FFF79DFD054643
:10205800B8E72E46C0E72F4AD36A43F40033D36269
:10206800C5B92C4A136D23F04053216F0B431365F8
:10207800236813F0807F1CD0A36C032B44D8DFE8BF
:1020880003F0100B3C10012104F10800FFF7F8FCE5
:102098000546E5E72E46EBE71E4AD36A43F40033CC
:1020A800D362A5BB1B4AD36C23F00303A16C0B437B
:1020B800D364236813F4800F2ED1236813F0010F23
:1020C80000F0A680E36F282B00F2A080DFE803F081
:1020D8008E9E9E9E9E9E9E9E889E9E9E9E9E9E9E3E
:1020E800979E9E9E9E9E9E9E8E9E9E9E9E9E9E9E1F
:1020F8008E9E9E9E9E9E9E9E8E00022104F108004A
:10210800FFF7BEFC0546CCE701263546D1E72E464B
:10211800CFE700BF004402585A4A136843F480735B
:102128001360FEF7C9FA0746564B1B6813F4807F05
:1021380005D1FEF7C1FAC01B6428F5D90325002D87
:102148004AD1514B1B6FD4F8B420534013F4407F4D
:102158000CD04D4B1A6F22F44072196F41F4803144
:102168001967196F21F4803119671A67D4F8B430E8
:10217800B3F5807F15D08DBBD4F8B43003F440722A
:10218800B2F5407F1ED0404A136923F47C53136193
:102198003D490B6FD4F8B420C2F30B0213430B670D
:1021A8008BE7FEF789FA0746374B1B6F13F0020FD0
:1021B800E1D1FEF781FAC01B41F288339842F3D986
:1021C8000325D8E73048026922F47C522F4901EAF6
:1021D800131313430361DBE72E466EE72E466CE7C5
:1021E800012104F10800FFF74BFC0546E5B9264A32
:1021F800536D23F03803E16F0B43536508E0012169
:1022080004F12800FFF7C0FC0546EFE70126354634
:10221800236813F0020F17D0A36F052B2CD8DFE823
:1022280003F00B05240B0B0B2E46F1E7012104F1FB
:102238000800FFF725FC05460DBB134A536D23F034
:102248000703A16F0B435365236813F0040F30D0C5
:10225800D4F89430052B00F20F81DFE813F01F004B
:10226800190006011F001F001F00012104F12800AA
:10227800FFF78AFC0546DFE701263546E4E72E46E8
:10228800E2E700BF0048025800440258CFFFFF00B1
:10229800012104F10800FFF7F3FB0546002D40F08B
:1022A800EE80B64A936D23F00703D4F894100B43DD
:1022B8009365236813F0200F1DD0D4F89030B3F144
:1022C800005F00F0F08000F2DF804BB1B3F1805F77
:1022D80040F0D780002104F10800FFF7D1FB054644
:1022E800002D40F0E780A54A536D23F0E043D4F871
:1022F80090100B435365236813F0400F1DD0D4F89A
:102308009C30B3F5006F00F0E98000F2D8804BB143
:10231800B3F5806F40F0D080002104F10800FFF78A
:10232800AFFB0546002D40F0E080944A936D23F4FE
:10233800E053D4F89C100B439365236813F0800F87
:102348001DD0D4F8A030B3F5804F00F0E28000F241
:10235800D1804BB1B3F5005F40F0C980002104F192
:102368000800FFF78DFB0546002D40F0D980834A11
:10237800936D23F46043D4F8A0100B43936523684E
:1023880013F0080F0DD0D4F88430B3F5805F00F057
:10239800C9807A4A536D23F44053D4F884100B4310
:1023A8005365236813F0100F0DD0D4F89830B3F5A7
:1023B800807F00F0C180714A936D23F44073D4F894
:1023C80098100B439365236813F4002F1CD0D4F89E
:1023D800A430B3F5803F00F0B980B3F5003F08D0D2
:1023E800002B40F0BA80002104F10800FFF748FBF9
:1023F8000546002D40F0B480604A936D23F44033C5
:10240800D4F8A4100B439365236813F4802F1CD0D1
:10241800D4F88830B3F5001F00F0A480B3F5401F4E
:1024280008D0B3F5801F40F0A480544AD36A43F41F
:102438000033D362002D40F09F80504A536D23F43F
:102448004013D4F888100B435365236813F4803F76
:1024580000F0AC80236D002B00F09280B3F5803F34
:1024680000F09C8001263546A0E0012104F12800F7
:10247800FFF78AFB054611E70126354619E72E4680
:1024880017E70126354636E7B3F1804F3FF428AF0A
:10249800B3F1A04F3FF424AFB3F1405F3FF420AF56
:1024A8000126354627E7022104F12800FFF76CFBD7
:1024B800054615E72E461EE7012635463DE7B3F5E6
:1024C800805F3FF42FAFB3F5A05F3FF42BAFB3F5B8
:1024D800406F3FF427AF012635462EE7022104F16D
:1024E8002800FFF751FB05461CE72E4625E7012685
:1024F800354644E7B3F5004F3FF436AFB3F5204F08
:102508003FF432AFB3F5C04F3FF42EAF0126354646
:1025180035E7022104F12800FFF736FB054623E7DB
:102528002E462CE7022104F12800FFF72DFB002896
:102538003FF42FAF01262CE7022104F12800FFF712
:1025480023FB00283FF437AF012634E7022104F1CA
:102558002800FFF719FB05464BE70126354653E7E8
:102568002E4651E7012104F12800FFF70DFB05462F
:1025780060E70126354668E72E4666E700440258BC
:10258800704AD36A43F40033D36275B96D4AD36C89
:1025980023F48033216D0B43D36407E0022104F157
:1025A8000800FFF76DFA0546EFE72E46236813F09B
:1025B800005F11D1236813F4003F28D0D4F880308D
:1025C800B3F5807F14D010D9B3F5007F15D0B3F5DB
:1025D800407F12D001261AE0022104F12800FFF7FB
:1025E800D3FA0028E6D00126E4E733B101260EE04D
:1025F800544AD36A43F40033D362002D69D1514A57
:10260800536D23F44073D4F880100B43536523684B
:1026180013F4801F06D04B4A136D23F00043616FFB
:102628000B431365236813F0805F07D0454A13698D
:1026380023F48043D4F8B8100B431361236813F4D0
:10264800001F06D03F4A136D23F08073E16E0B43E1
:102658001365236813F0804F09D03A4B1A6922F4A6
:1026680000421A611A69D4F8BC100A431A61236837
:10267800002B06DA334AD36C23F04053616D0B43C9
:10268800D364236813F4000F07D02E4A536D23F444
:102698004003D4F88C100B435365636813F0010FA3
:1026A80019D1636813F0020F1ED1636813F0040F89
:1026B80023D1636813F0080F28D1636813F0100F53
:1026C8002DD1636813F0200F32D106B101263046B0
:1026D800F8BD2E469BE7002104F10800FFF7D0F96A
:1026E8000028DED00646DCE7012104F10800FFF7E8
:1026F800C7F90028D9D00646D7E7022104F1080017
:10270800FFF7BEF90028D4D00646D2E7002104F12D
:102718002800FFF739FA0028CFD00646CDE7012177
:1027280004F12800FFF730FA0028CAD00646C8E7A7
:10273800022104F12800FFF727FA0028C5D0012656
:10274800C5E700BF00440258FEE7FEE7FEE7FEE7E4
:10275800FEE770477047704708B5FDF7A1FF08BD51
:10276800314AD2F8883043F47003C2F888302F4BCE
:102778001B6803F00F03062B06D82C4A136823F0B6
:102788000F0343F007031360294B1A6842F0010254
:102798001A6000221A611968264A0A401A60234BF7
:1027A8001B6813F0080F06D0204A136823F00F03A4
:1027B80043F0070313601E4B00229A61DA611A6224
:1027C8001D4999621D49D9621D4919635A63996364
:1027D800DA6319645A64196821F4802119601A6649
:1027E800184B1B686FF30F03B3F1005F03D2164B4E
:1027F8000122C3F808210E4BD3F8D43013F4805FBC
:1028080010D10B4BD3F8D42042F48052C3F8D42013
:102818000E4A43F2D2011160D3F8D42022F4805238
:10282800C3F8D420704700BF00ED00E0002000523C
:10283800004402587FEDF6EA000202020000FF01A0
:10284800800201010010005C00800051004000522D
:10285800054AD36843F00203D360034B5B6813F463
:10286800005FFAD0704700BF00480258DFF838D040
:10287800FFF7EEFFFFF774FF0C480D490D4A0023E0
:1028880002E0D458C4500433C4188C42F9D30A4A1D
:102898000A4C002301E013600432A242FBD300F08B
:1028A80019F8FDF78BFE7047000002200000002099
:1028B80010000020542900081000002030000020DB
:1028C800FEE702440346934200D1704703F8011B18
:1028D800F9E7000070B50D4B0D4D5B1B9C100026F1
:1028E800A64209D100F01AF80A4D0B4B5B1B9C104D
:1028F8000026A64205D170BD55F8043B984701361D
:10290800EEE755F8043B98470136F2E74C290008F2
:102918004C2900084C29000850290008F8B500BFC8
:10292800F8BC08BC9E467047F8B500BFF8BC08BCA8
:042938009E46704700
:10293C000000000001020304010203040607080959
:04294C00BD020008C0
:0429500099020008E0
:1029540001000000100000000090D0030090D0039C
:040000050800287552
:00000001FF
