:020000040800F2
:1000000000000220C1380008493600084B360008BD
:100010004D3600084F360008513600080000000039
:10002000000000000000000000000000533600083F
:100030005536000800000000573600085936000801
:100040001539000815390008153900081539000858
:100050001539000815390008153900081539000848
:100060001539000815390008153900081539000838
:100070001539000815390008153900081539000828
:100080001539000815390008153900081539000818
:100090001539000815390008153900081539000808
:1000A00015390008153900081539000815390008F8
:1000B00015390008153900081539000815390008E8
:1000C00015390008153900081539000815390008D8
:1000D000153900088138000815390008153900085D
:1000E000153900081539000800000000153900080E
:1000F00015390008153900081539000815390008A8
:100100001539000815390008153900081539000897
:100110001539000815390008153900081539000887
:100120001539000815390008153900081539000877
:100130001539000815390008153900081539000867
:1001400000000000000000000000000000000000AF
:100150001539000815390008153900081539000847
:100160001539000815390008153900081539000837
:10017000153900081539000815390008000000007D
:100180001539000815390008153900081539000817
:100190001539000815390008153900081539000807
:1001A000D103000815390008153900081539000871
:1001B00015390008153900081539000815390008E7
:1001C00015390008153900081539000815390008D7
:1001D00015390008153900081539000815390008C7
:1001E00015390008153900081539000815390008B7
:1001F00015390008153900081539000815390008A7
:100200001539000815390008153900081539000896
:100210001539000815390008153900081539000886
:1002200015390008153900081539000800000000CC
:1002300015390008153900080000000015390008BC
:100240001539000815390008153900081539000856
:100250001539000815390008153900081539000846
:100260001539000815390008153900081539000836
:10027000153900081539000815390008000000007C
:10028000153900081539000815390008000000006C
:08029000000000001539000810
:1002980053B94AB9002908BF00281CBF4FF0FF31E5
:1002A8004FF0FF3000F00CB8ADF1080C6DE904CE4A
:1002B80003F06CFBDDF804E0DDE9022304B07047CD
:1002C800704700BF10B5054C237833B9044B13B100
:1002D8000448AFF300800123237010BD10000020F4
:1002E800000000008C3C000808B5034B1BB1034913
:1002F8000348AFF3008008BD000000001400002090
:100308008C3C0008F8B504460D461646284B036099
:10031800002343608360C36003615F22426101225E
:1003280082618F22C2612222026240F20F3242624F
:1003380040F20222826240F21F32C2624FF403721C
:10034800026380F8343080F8353080F8363000F0B9
:10035800BBFC38BB00222A604FF420716960AA6098
:100368004FF4F073EB6005202861FF276F61AA61E5
:100378004FF48067EF6128626E62A962EB622946DA
:10038800204600F0FFFC80B940F2DF11204600F063
:100398002DFD00221146582000F04EFA582000F09A
:1003A8005BFAF8BD00F0D6F8D4E700F0D3F8EBE735
:1003B8000010005008B50B464FF496220146184627
:1003C80003F0A5FA08BD0000054B9B689A6B12F074
:1003D800010F04D00122DA63014BC3F8E42070470F
:1003E8003000002088B02B4BD3F8E02042F01002F8
:1003F800C3F8E020D3F8E02002F010020192019A3D
:10040800D3F8E02042F02002C3F8E020D3F8E0203F
:1004180002F020020292029AD3F8E02042F004028D
:10042800C3F8E020D3F8E02002F004020392039A14
:10043800D3F8E02042F00102C3F8E020D3F8E0202E
:1004480002F001020492049AD3F8E02042F002027A
:10045800C3F8E020D3F8E02002F002020592059AE2
:10046800D3F8E02042F00802C3F8E020D3F8E020F7
:1004780002F008020692069AD3F8E02042F0400201
:10048800C3F8E020D3F8E03003F040030793079B5C
:1004980008B070470044025830B585B00024009475
:1004A80001940294039400F0EFF901238DF80030D1
:1004B8008DF8014001941F228DF8082087228DF8BD
:1004C80009208DF80A408DF80B408DF80C308DF816
:1004D8000D308DF80E408DF80F40684600F0F2F9A7
:1004E800042000F0DFF905B030BD000008B5034670
:1004F800007803281BD8DFE800F002181B25134AF0
:100508001178134A127891420CD0104A92F800C020
:100518000F4981F800C0127802B9FF205968FFF727
:1005280049FF04E001221A7001E002221A7008BD96
:10053800D3F8E420002AFAD00022C3F8E4200322EA
:100548001A70F4E700221A70F1E700BF18010020C2
:100558002C00002072B6FEE700B5CFB04C22002177
:100568003BA803F0D4F92022002133A803F0CFF9E7
:10057800C022002102A803F0CAF9022000F066FD9B
:1005880000230193324BD96A21F00101D962DB6A59
:1005980003F0010301932F498B6923F4404343F48B
:1005A80080438B618B6903F440430193019B294B82
:1005B8009B6913F4005FFAD002233B9301223E9219
:1005C80040223F92449300224592042146911421EF
:1005D8004791489349934A930C214B914C934D92E0
:1005E8003BA800F05DFD60BB3F23339303233493A6
:1005F80000213591092336934023379338934FF4DC
:10060800806239923A9333A801F09EF9D8B902A8CA
:100618004FF000520023CDE90223082383621922F8
:10062800C26202220263426383634FF44063C3637E
:1006380000230364436401F01FFC30B94FB05DF838
:1006480004FBFFF787FFFFF785FFFFF783FF00BF76
:10065800000400580048025808B5FFF71DFF00F0D5
:1006680053F8FFF779FFFFF7BDFE03F07BF80F4C57
:100678000F4A62600023C4F8E430214601F8B03B19
:1006880004F10800FFF73EFE6168FF20FFF792FEC5
:1006980007E003F0D3F8074B00221A700348FFF76E
:1006A80025FF044B1B78002BF3D1F7E7300000201F
:1006B8000000002462010020104B1B780BB90120B8
:1006C800704710B504464FF47A70B0FBF3F30C4A48
:1006D8001068B0FBF3F000F0C3F868B90F2C01D92B
:1006E80001200AE0002221464FF0FF3000F0A4F874
:1006F800044B1C60002000E0012010BD0000002019
:100708000C0000200400002010B5032000F082F83F
:1007180001F01EF80F498B69C3F303230E4AD35C1B
:1007280003F01F03D8408B6903F00F03D35C03F079
:100738001F0320FA03F3094A1360094B18600F20BE
:10074800FFF7BAFF10B10124204610BD044600F09F
:1007580071FBF9E700440258BC3C0008080000207F
:100768000C000020034B1B78034A11680B441360EC
:10077800704700BF000000201C010020014B1868D2
:10078800704700BF1C010020014B1868000C70471F
:100798000010005C002807DB00F01F02400901235D
:1007A8009340024A42F82030704700BF00E100E061
:1007B800002804DB0901C9B2044B1954704700F042
:1007C8000F000901C9B2024B1954704700E400E058
:1007D80014ED00E000B500F00700C0F1070CBCF113
:1007E800040F28BF4FF0040C031D062B0FD9C31E9E
:1007F8004FF0FF3E0EFA0CF021EA000199400EFA84
:1008080003FE22EA0E0241EA02005DF804FB00231F
:10081800EEE700000649CB6823F4E0631B041B0CD9
:10082800000200F4E0600343024A1A43CA607047BA
:1008380000ED00E00000FA0510B50446054BD86845
:10084800C0F30220FFF7C6FF01462046FFF7B0FFBE
:1008580010BD00BF00ED00E008B5FFF79BFF08BD25
:100868000138B0F1807F0BD24FF0E0235861054A80
:10087800F02182F823100020986107221A6170473E
:100888000120704700ED00E0BFF35F8F044B5A6A08
:1008980022F480325A620022C3F89420704700BFC5
:1008A80000ED00E040F00100054BC3F894005A6ADF
:1008B80042F480325A62BFF34F8FBFF36F8F704795
:1008C80000ED00E04378144AC2F89830D2F8A0301E
:1008D80023F00103C2F8A0304368C2F89C30017BC2
:1008E800C37A1B0643EA0173817A43EAC143417B19
:1008F80043EA8143817B43EA4143C17B43EA0143A5
:10090800417A43EA0123017A43EA410301780B4320
:10091800C2F8A030704700BF00ED00E0F0B583B02A
:1009280000236BE085685E000324B44025EA0405D3
:10093800CC68B4402C438460456825EA0C054C68B3
:10094800C4F300149C402C43446069E0DD0808357A
:1009580050F8254003F0070C4FEA8C0C4FF00F0EAF
:100968000EFA0CFE24EA0E0E0C6904FA0CF444EAA2
:100978000E0440F825406BE0092400E0002404FA46
:100988000EF42C430CF1020C694D45F82C404FF045
:10099800B0442568D44325EA02064F6817F4801F3F
:1009A80001D042EA05064FF0B0452E606D6804EAB2
:1009B80005064F6817F4001F01D042EA05064FF0FC
:1009C800B0456E60D5F8845004EA05064F6817F400
:1009D800003F01D042EA05064FF0B045C5F88460F3
:1009E800D5F880502C404E6816F4803F01D042EA7A
:1009F80005044FF0B042C2F8804001330A6832FA69
:100A080003F400F092804FF0010C0CFA03FC1CEA8E
:100A18000202F2D04C6804F00304013C012C81D995
:100A28004C6804F00304032C0CD0C4685D004FF03C
:100A3800030C0CFA05FC24EA0C0C8C68AC4044EA64
:100A48000C04C4604C6804F00304022C3FF47EAF2D
:100A580004684FEA430E4FF0030C0CFA0EFC24EA2C
:100A68000C0C4C6804F0030404FA0EF444EA0C0479
:100A780004604C6814F4403FBFD02E4CD4F8F450B6
:100A880045F00205C4F8F450D4F8F44004F0020428
:100A98000194019C4FEA930C0CF10205244C54F884
:100AA800255003F0030E4FEA8E0E0F2404FA0EF4BD
:100AB80025EA0405204CA0423FF460AF04F58064A9
:100AC800A04222D004F58064A04220D004F58064BE
:100AD800A0421ED004F58064A0421CD004F58064B6
:100AE800A0421AD004F58064A04218D004F58064AE
:100AF800A04216D004F58064A04214D004F58064A6
:100B0800A0423FF439AF0A2439E7012437E7022429
:100B180035E7032433E7042431E705242FE70624C7
:100B28002DE707242BE7082429E703B0F0BD00BF11
:100B380000040058004402580000025870B54D687F
:100B48000368DC68C4F30B4425444FEAC21C03EB7A
:100B5800C213D3F8884004F47044C3F888400B6883
:100B68000468E668C6F30B4E7344013304EBC21401
:100B780043EA0543C4F88830CD680368DC68C4F3E9
:100B88000A0405EB040E03EBC213D3F88C4004F4FB
:100B98007044C3F88C408B680468E568C5F30A059F
:100BA8002B44013304EBC21443EA0E43C4F88C30DF
:100BB800036803EBC213D3F8944024F00704C3F886
:100BC8009440036803EBC2130C69C3F8944091F88E
:100BD800316091F832508C6991F8303043EA06233D
:100BE80043EA0543056805EBC21E43EA0463CEF8F1
:100BF8009C300EF1840E036803EBC213D3F89840BF
:100C080024F0FF04C3F89840036803EBC2134C694F
:100C1800C3F89840036803EBC213D3F8A050294CDB
:100C28002C40C3F8A040CC69036803EBC2130D6ADB
:100C38002C43C3F8A040036803EBC2134A6AC3F805
:100C4800AC200B69072B05D8DFE803F03A323436BD
:100C580034040438012503686344D3F8B02002F053
:100C6800E022C3F8B0208B6A05FB03F44B680A68DE
:100C78009B1A05FB03F307330268624443EA044303
:100C8800C2F8B03003686344D3F8B4206FF30A02A3
:100C9800C3F8B42003686344CA6AC3F8B42003687D
:100CA8006344D3F8842042F00102C3F8842070BD65
:100CB8000325D0E70225CEE70225CCE70225CAE7BF
:100CC8000425C8E7F8F8FFFF002859D010B50446F6
:100CD80090F8A130002B4ED0022384F8A13022686E
:100CE800936923F07043936121688A696368A068F7
:100CF8000343E06803432069034313438B6161693D
:100D0800A369226843EA01439360E169236A226880
:100D180043EA0143D360616AA36A226843EA014354
:100D28001361E16A236B226843EA0143536194F833
:100D3800350094F836301B042168CA6A02F07F42F5
:100D4800CA622168CA6A43EA002394F8340003435C
:100D58001343CB622268536B43F006035363226844
:100D6800936943F0010393610020C4F8A4000123B0
:100D780084F8A13010BD80F8A03000F06DF8ABE722
:100D880001207047F8B590F8A030012B2CD004460C
:100D98000D461646012780F8A070022380F8A1307E
:100DA8004FF0340C0CFB020C0CF1380C8E46BEE8EC
:100DB8000F00ACE80F00BEE80F00ACE80F00BEE87B
:100DC8000F00ACE80F00DEF80030CCF800303246F7
:100DD80029462046FFF7B2FE23685F6284F8A170B7
:100DE800002084F8A000F8BD0220FCE790F8A020BD
:100DF800012A1AD010B40346012083F8A000022269
:100E080083F8A1201C68626B22F001026263084A21
:100E1800116419684A6B02434A6383F8A1000020F1
:100E280083F8A0005DF8044B70470220704700BFAC
:100E38000010005082B0074BD3F8F42042F00202B1
:100E4800C3F8F420D3F8F43003F002030193019BB4
:100E580002B07047004402582DE9F04F8FB00023CC
:100E680009930A930B930C930D9302686D4B9A4266
:100E780002D00FB0BDE8F08F6B4BD3F8E42042F0FE
:100E88000802C3F8E420D3F8E42002F00802019233
:100E9800019AD3F8E02042F01002C3F8E020D3F81A
:100EA800E02002F010020292029AD3F8E02042F009
:100EB8002002C3F8E020D3F8E02002F020020392D9
:100EC800039AD3F8E02042F00402C3F8E020D3F8F4
:100ED800E02002F004020492049AD3F8E02042F0E1
:100EE8000102C3F8E020D3F8E02002F001020592E5
:100EF800059AD3F8E02042F00202C3F8E020D3F8C4
:100F0800E02002F002020692069AD3F8E02042F0AE
:100F18000802C3F8E020D3F8E02002F008020792A4
:100F2800079AD3F8E02042F04002C3F8E020D3F853
:100F3800E03003F040030893089B49F670030993D7
:100F480002260A960E270D9709ADDFF8F4A0294668
:100F58005046FFF7E3FC4FF48068CDF824800A96EA
:100F680000240B940C940D9729463048FFF7D6FCC3
:100F780040F2C12309930A960B940C940D972946C5
:100F88002B48FFF7CBFC40F27E4309930A960B945B
:100F98000C940D9729462748FFF7C0FC4FF0030B28
:100FA800CDF824B00A960B940C9409230D93DFF81E
:100FB800949029464846FFF7B1FC4FF480430993C3
:100FC8000A960B94CDF830B00D9729465046FFF796
:100FD800A5FC4FF4706309930A960B940C940D9733
:100FE80029464846FFF79AFCCDF824800A960B94C8
:100FF8000C940D9729461048FFF790FC4FF40453C2
:1010080009930A960B940C940D9729460B48FFF701
:1010180085FC224621465820FFF70EFC5820FFF792
:101028001BFC26E700100050004402580014025828
:101038000008025800000258000C02580018025814
:10104800001002580004025870470000134BDB6878
:1010580013F0040F07D1114BDB6803F00703834239
:101068001AD00120704710B50C4AD36823F0070343
:101078000343D360FFF782FB0446084B5B6813F415
:10108800005F07D1FFF77AFB001BB0F57A7FF4D930
:10109800012000E0002010BD0020704700480258E1
:1010A800002800F0398338B50446036813F0010FAF
:1010B80025D0944A136903F03803926A102B15D08F
:1010C800182B0FD06368B3F5803F3FD0002B53D166
:1010D8008C4B1A6822F480321A601A6822F4802233
:1010E8001A6038E002F00302022AEBD1854B1B6834
:1010F80013F4003F03D06368002B00F00F832368CC
:1011080013F0020F00F0A1807E4A1369926A13F06F
:1011180038035AD0182B55D0E368002B00F0DE8036
:1011280078490A6822F0190213430B60FFF726FB7F
:101138000546744B1B6813F0040F40F0AD80FFF7B1
:101148001DFB401B0228F4D90320EEE26D4A136808
:1011580043F48033136063682BB3FFF70FFB054636
:10116800684B1B6813F4003FC9D1FFF707FB401B0E
:101178006428F5D90320D8E2B3F5A02F09D0614B34
:101188001A6822F480321A601A6822F480221A60DF
:10119800E1E75C4B1A6842F480221A601A6842F44C
:1011A80080321A60D7E7FFF7E9FA0546554B1B6806
:1011B80013F4003FA3D0FFF7E1FA401B6428F5D9E8
:1011C8000320B2E212F0030FA6D14E4B1B6813F0B6
:1011D800040F03D0E368002B00F0A282494A136889
:1011E80023F01903E1680B431360FFF7C7FA0546BC
:1011F800444B1B6813F0040F06D1FFF7BFFA401BDE
:101208000228F5D9032090E2FFF7BEFA41F2030362
:10121800984212D82269402A07D03A494B6823F4E9
:101228007C3343EA02334B600FE0364A536823F4B9
:101238007C3343F40033536007E0324A536823F0A9
:10124800FE43216943EA01635360236813F0100FDA
:1012580000F088802B4A136903F03803926A082B40
:1012680056D0182B50D0E369002B00F0B880254ADF
:10127800136843F080031360FFF780FA0546214B9B
:101288001B6813F4807F40F08880FFF777FA401BD3
:101298000228F4D9032048E2FFF776FA41F2030363
:1012A800984212D82269402A07D016494B6823F47D
:1012B8007C3343EA02334B60C7E7124A536823F48E
:1012C8007C3343F400335360BFE70E4A536823F07E
:1012D800FE43216943EA01635360B6E7094A13688C
:1012E80023F001031360FFF749FA0546054B1B6815
:1012F80013F0040FA9D0FFF741FA401B0228F5D9D3
:10130800032012E20044025802F00302012AAAD183
:10131800A14B1B6813F4807F03D0E369802B40F056
:101328000182FFF731FA41F20303984212D8226A88
:10133800202A07D098494B6823F0F84343EA826390
:101348004B600FE0944A536823F0F84343F080431E
:10135800536007E0904AD36823F07C53216A43EA3C
:101368000163D360236813F0080F60D06369002B12
:1013780049D0894A536F43F001035367FFF7FEF9D9
:101388000546854B5B6F13F0020F50D1FFF7F6F956
:10139800401B0228F5D90320C7E1FFF7F5F941F210
:1013A8000303984212D8226A202A07D07A494B6848
:1013B80023F0F84343EA82634B60D3E7764A5368E5
:1013C80023F0F84343F080435360CBE7724AD36875
:1013D80023F07C53216A43EA0163D360C2E76E4A73
:1013E800136823F080031360FFF7C8F905466A4BBA
:1013F8001B6813F4807FB5D0FFF7C0F9401B0228A3
:10140800F5D9032091E1644A536F23F00103536730
:10141800FFF7B4F90546604B5B6F13F0020F06D077
:10142800FFF7ACF9401B0228F5D903207DE12368BA
:1014380013F0200F29D0A3699BB1574A136843F4CE
:1014480080531360FFF79AF90546534B1B6813F452
:10145800005F1AD1FFF792F9401B0228F5D9032043
:1014680063E14D4A136823F480531360FFF786F94C
:101478000546494B1B6813F4005F06D0FFF77EF959
:10148800401B0228F5D903204FE1236813F0040F0D
:1014980021D1636A002B00F047813F4A126902F0AC
:1014A8003802182A00F0EE80022B79D03A4A1368E5
:1014B80023F080731360FFF761F90446364B1B680D
:1014C80013F0007F00F0DC80FFF758F9001B0228BA
:1014D800F4D9032029E1314A136843F48073136077
:1014E800FFF74CF905462D4B1B6813F4807F06D196
:1014F800FFF744F9401B6428F5D9032015E1A368D8
:10150800012B0AD00BBB244B1A6F22F001021A6779
:101518001A6F22F004021A6704E01F4A136F43F09F
:1015280001031367A36833B3FFF728F905461A4B7D
:101538001B6F13F0020FACD1FFF720F9401B41F2EB
:1015480088339842F3D90320EFE0052B09D0124BDA
:101558001A6F22F001021A671A6F22F004021A6742
:10156800E0E70D4B1A6F42F004021A671A6F42F057
:1015780001021A67D6E7FFF701F90546064B1B6F0C
:1015880013F0020F85D0FFF7F9F8401B41F28833BA
:101598009842F3D90320C8E0004402580048025892
:1015A800694A136823F080731360FFF7E7F805466C
:1015B800654B1B6813F0007F06D0FFF7DFF8401B70
:1015C8000228F5D90320B0E05F4B996A5F4A0A40C8
:1015D800A16AE06A41EA00110A439A62226B013A61
:1015E800C2F30802616B0139490289B20A43A16B4F
:1015F8000139090401F4FE010A43E16B01390906C6
:1016080001F0FE410A431A63DA6A22F00102DA6243
:101618005A6B6FF3CF02A16C42EAC1025A63DA6ACD
:1016280022F00C02216C0A43DA62DA6A22F0020222
:10163800616C0A43DA62DA6A42F48032DA62DA6AA0
:1016480042F40032DA62DA6A42F48022DA62DA6A52
:1016580042F00102DA621A6842F080721A60FFF7FB
:101668008DF80446384B1B6813F0007F06D1FFF74E
:1016780085F8001B0228F5D9032056E0002054E025
:10168800002052E0304A916A106B012B4ED001F0D5
:101698000303A26A93424BD1C1F30511E36A99424D
:1016A80048D1C0F30802236B013B9A4244D1C0F3EE
:1016B8004622636B013B9A4240D1C0F30642A36BBA
:1016C800013B9A423CD1C0F30660E36B013B984270
:1016D80038D11D4B5B6BC3F3CC03A26C9A4201D18A
:1016E800002022E0184AD36A23F00103D362FFF7EF
:1016F80045F80546FFF742F8A842FBD0124A536B5B
:101708006FF3CF03A16C43EAC1035363D36A43F079
:101718000103D362002008E001207047012004E0A3
:10172800012002E0012000E0002038BD0120FCE794
:101738000120FAE70120F8E70120F6E70120F4E7A5
:101748000120F2E70120F0E7004402580CFCFFFFFB
:10175800754B1B6903F03803102B00F0DE80182B43
:101768000FD0002B40F0DB806F4B1B6813F0200F6D
:1017780000F0D7806C4B1B68C3F3C1036B48D8409B
:10178800704710B4684B9A6A02F003029C6AC4F36B
:101798000510D96A01F001015B6BC3F3CC0301FBAF
:1017A80003F307EE903AF8EE677A14F47C7F77D06B
:1017B800012A4AD0022A76D0002A40F091805A4B5A
:1017C8001B6813F0200F23D057490A68C2F3C102DF
:1017D800564BD34007EE103AF8EE476A07EE100A68
:1017E800B8EE476A86EE867A0B6BC3F3080306EEFB
:1017F800903AF8EE666A9FED4E6A67EE867A76EE64
:10180800A77AF7EE006A77EEA67A27EE277A38E00D
:1018180007EE100AF8EE476A9FED466A86EE267ACA
:10182800414B1B6BC3F3080306EE903AF8EE666A69
:101838009FED3F6A67EE867A76EEA77AF7EE006A42
:1018480077EEA67A27EE277A1BE007EE100AF8EE65
:10185800476A9FED396A86EE267A334B1B6BC3F3D2
:10186800080306EE903AF8EE666A9FED316A67EE75
:10187800867A76EEA77AF7EE006A77EEA67A27EEF2
:10188800277A294B1B6BC3F34623013307EE903AA3
:10189800F8EE677AC7EE276AFCEEE67A17EE900A4A
:1018A8005DF8044B704707EE100AF8EE476A9FEDA3
:1018B800236A86EE267A1C4B1B6BC3F3080306EEDD
:1018C800903AF8EE666A9FED1A6A67EE867A76EEC7
:1018D800A77AF7EE006A77EEA67A27EE277AD0E79E
:1018E80007EE100AF8EE476A9FED136A86EE267A2D
:1018F8000D4B1B6BC3F3080306EE903AF8EE666ACD
:101908009FED0B6A67EE867A76EEA77AF7EE006AA5
:1019180077EEA67A27EE277AB3E709487047094891
:1019280070470248704700BF004402580090D00337
:10193800000000390024744C0024744A20BCBE4BBB
:1019480040787D0100093D00002800F0328170B523
:101958000D4604469B4B1B6803F00F038B420BD2CA
:10196800984A136823F00F030B431360136803F0BE
:101978000F038B4240F01F81236813F0040F0CD033
:101988002269914B9B6903F070039A4205D98E49ED
:101998008B6923F070031A438A61236813F0080FD8
:1019A8000CD06269884BDB6903F070039A4205D951
:1019B8008549CB6923F070031A43CA61236813F081
:1019C800100F0CD0A269804BDB6903F4E0639A42E4
:1019D80005D97D49CB6923F4E0631A43CA612368BA
:1019E80013F0200F0CD0E269774B1B6A03F07003E9
:1019F8009A4205D974490B6A23F070031A430A62A4
:101A0800236813F0020F0CD0E2686F4B9B6903F058
:101A18000F039A4205D96C498B6923F00F031A43C7
:101A28008A61236813F0010F41D0674A936923F450
:101A38007063A1680B4393616368022B0AD0032B80
:101A480027D0012B2CD0604A126812F0040F06D15F
:101A58000120ADE0126812F4003F00F0AE805A4950
:101A68000A6922F0070213430B61FEF787FE064658
:101A7800554B1B6903F038036268B3EBC20F16D0ED
:101A8800FEF77CFE801B41F288339842F0D9032090
:101A98008EE04D4A126812F0007FE0D1012087E005
:101AA800494A126812F4807FD9D1012080E0236866
:101AB80013F0020F0CD0E268434B9B6903F00F034D
:101AC8009A4205D240498B6923F00F031A438A6171
:101AD8003C4B1B6803F00F03AB420AD9394A136821
:101AE80023F00F032B431360136803F00F03AB427B
:101AF80065D1236813F0040F0CD02269324B9B691F
:101B080003F070039A4205D22F498B6923F07003C2
:101B18001A438A61236813F0080F0CD062692A4BB4
:101B2800DB6903F070039A4205D22749CB6923F099
:101B380070031A43CA61236813F0100F0CD0A2690E
:101B4800214BDB6903F4E0639A4205D21E49CB6955
:101B580023F4E0631A43CA61236813F0200F0CD002
:101B6800E269194B1B6A03F070039A4205D21649C1
:101B78000B6A23F070031A430A62FFF7E9FD124962
:101B88008B69C3F30323114AD35C03F01F03D840C6
:101B98008B6903F00F03D35C03F01F0320FA03F3F0
:101BA8000B4A13600B4B18600B4B1868FEF784FD4B
:101BB80070BD012070470120FAE70120F8E70120F5
:101BC800F6E700BF0020005200440258BC3C000861
:101BD800080000200C0000200400002008B5FFF7D2
:101BE800B7FD0B4A9369C3F303230A49CB5C03F09F
:101BF8001F0320FA03F3926902F00F02885C00F0D9
:101C08001F0023FA00F0044A1060044A136008BD5C
:101C180000440258BC3C0008080000200C000020CA
:101C280008B5FFF7DBFF054BDB69C3F30213044A72
:101C3800D35C03F01F03D84008BD00BF004402581E
:101C4800BC3C000808B5FFF7C9FF054BDB69C3F3C7
:101C58000223044AD35C03F01F03D84008BD00BF29
:101C680000440258BC3C0008404B9B6A03F0030345
:101C7800032B79D070B505460E463C4A136823F00D
:101C880080631360FEF77AFD0446384B1B6813F037
:101C9800006F06D0FEF772FD031B022BF5D9032057
:101CA80070BD324B9A6A22F47C32296842EA0132CA
:101CB8009A626A68013AC2F30802A96801394902BE
:101CC80089B20A43E9680139090401F4FE010A43AB
:101CD80029690139090601F0FE410A439A63DA6A63
:101CE80022F0C00269690A43DA62DA6A22F0200245
:101CF800A9690A43DA62DA6A22F01002DA62DA6B58
:101D08006FF3CF02E96942EAC102DA63DA6A42F0A4
:101D18001002DA62C6B91A46DB6A43F40023D362BA
:101D2800124A136843F080631360FEF727FD0446E8
:101D38000E4B1B6813F0006F14D1FEF71FFD001B3C
:101D48000228F5D90320ABE7012E05D0074AD36A4C
:101D580043F40013D362E3E7044AD36A43F48013DD
:101D6800D362DDE700209BE701207047004402585A
:101D7800404B9B6A03F00303032B79D070B50546EB
:101D88000E463C4A136823F080531360FEF7F6FCB6
:101D98000446384B1B6813F0005F06D0FEF7EEFCD4
:101DA800031B022BF5D9032070BD324B9A6A22F02F
:101DB8007C72296842EA01529A626A68013AC2F35F
:101DC8000802A9680139490289B20A43E968013958
:101DD800090401F4FE010A4329690139090601F0E1
:101DE800FE410A431A64DA6A22F4406269690A43C6
:101DF800DA62DA6A22F40072A9690A43DA62DA6AF4
:101E080022F48072DA625A6C6FF3CF02E96942EA0F
:101E1800C1025A64DA6A42F48072DA62C6B91A46B2
:101E2800DB6A43F48003D362124A136843F0805399
:101E38001360FEF7A3FC04460E4B1B6813F0005F0B
:101E480014D1FEF79BFC001B0228F5D90320ABE751
:101E5800012E05D0074AD36A43F08073D362E3E7C3
:101E6800044AD36A43F40003D362DDE700209BE70A
:101E78000120704700440258F8B50446036813F07F
:101E8800006F30D0836EB3F5001F26D00ED8ABB1EB
:101E9800B3F5801F07D102210830FFF7E5FE05469C
:101EA80095B12E4621E0012635461EE0B3F5401FC8
:101EB80001D1002508E00126354616E09A4AD36A82
:101EC80043F40033D3620025974A136D23F440137B
:101ED800A16E0B431365002607E002212830FFF7A7
:101EE80047FF0546DCE700263546236813F4807F64
:101EF80014D0A36D042B31D8DFE803F0032229089E
:101F08000800894AD36A43F40033D3624DBB864A3A
:101F1800136D23F00703A16D0B431365236813F4B6
:101F2800007F3FD0E36D802B2ED01FD833B3402BDA
:101F380019D1002104F10800FFF796FE054629E0B3
:101F4800002104F10800FFF78FFE0546DEE70021B7
:101F580004F12800FFF70CFF0546D7E701263546B0
:101F6800DCE72E46DAE7012635461BE0C02B11D008
:101F7800B3F5807F0ED00126354613E06A4AD36A4E
:101F880043F40033D36205E0002104F12800FFF791
:101F9800EFFE0546DDB9644A136D23F4E073E16D85
:101FA8000B431365236813F4806F33D0D4F8A8303B
:101FB800B3F5800F1FD00FD8BBB1B3F5001F08D100
:101FC800002104F10800FFF74FFE054619E02E46F0
:101FD800E8E7012635461DE0B3F5C00F11D0B3F58B
:101FE800000F0ED00126354614E04F4AD36A43F459
:101FF8000033D36205E0002104F12800FFF7B8FEA2
:102008000546E5B9484A936D23F46003D4F8A8104F
:102018000B439365236813F4006F34D0D4F8AC30C5
:10202800B3F1007F1FD00FD8BBB1B3F1807F08D1C7
:10203800002104F10800FFF717FE054619E02E46B7
:10204800E8E7012635461EE0B3F1407F11D0B3F131
:10205800806F0ED00126354615E0334AD36A43F423
:102068000033D36205E0002104F12800FFF780FE69
:102078000546002D33D12C4A936D23F0E063D4F844
:10208800AC100B439365236813F0007F13D0E36C07
:10209800202B2ED028D833B1102B22D1224AD36A34
:1020A80043F40033D3625DBB1F4AD36C23F0300383
:1020B800E16C0B43D364236813F4805F46D0236E2E
:1020C800B3F5005F32D020D843B3B3F5805F19D1A0
:1020D800002104F10800FFF7C7FD05462CE02E4655
:1020E800D1E701263546E6E7302BDCD00126354618
:1020F800E1E7022104F10800FFF7B6FD0546D2E743
:102108002E46D8E70126354620E0B3F5405F13D0C8
:10211800B3F5804F10D00126354617E0024AD36A3E
:1021280043F40033D36207E000440258002104F16D
:102138002800FFF71DFE05463DB9704A136D23F4CC
:10214800E043216E0B43136500E02E46236813F429
:10215800005F17D0636EB3F5003F4FD042D843B14C
:10216800B3F5803F3BD1012104F10800FFF77CFD66
:102178000546002D49D1614A136D23F4E023616EB1
:102188000B431365236813F4804F19D0D4F8B0308B
:10219800B3F1005F4AD03DD843B1B3F1805F36D187
:1021A800012104F10800FFF75FFD0546002D44D129
:1021B800524A936D23F0E043D4F8B0100B43936573
:1021C800236813F4004F47D0236FB3F1805F36D0F4
:1021D800B3F1005F4BD0BBB3012635463CE0012686
:1021E8003546CFE7B3F5802FC3D0B3F5A02FC0D0C5
:1021F800B3F5403FBDD001263546C3E7012104F1C0
:102208002800FFF7B5FD0546B3E72E46BAE70126D5
:102218003546D5E7B3F1804FC8D0B3F1A04FC5D04C
:10222800B3F1405FC2D001263546C9E7012104F168
:102238002800FFF79DFD0546B8E72E46C0E72F4A60
:10224800D36A43F40033D362C5B92C4A136D23F023
:102258004053216F0B431365236813F0807F1CD014
:10226800A36C032B44D8DFE803F0100B3C100121CA
:1022780004F10800FFF7F8FC0546E5E72E46EBE712
:102288001E4AD36A43F40033D362A5BB1B4AD36CFE
:1022980023F00303A16C0B43D364236813F4800F6A
:1022A8002ED1236813F0010F00F0A680E36F282BCE
:1022B80000F2A080DFE803F08E9E9E9E9E9E9E9E6A
:1022C800889E9E9E9E9E9E9E979E9E9E9E9E9E9E43
:1022D8008E9E9E9E9E9E9E9E8E9E9E9E9E9E9E9E36
:1022E8008E00022104F10800FFF7BEFC0546CCE78A
:1022F80001263546D1E72E46CFE700BF00440258F5
:102308005A4A136843F480731360FEF737FA074696
:10231800564B1B6813F4807F05D1FEF72FFAC01BBC
:102328006428F5D90325002D4AD1514B1B6FD4F8E9
:10233800B420534013F4407F0CD04D4B1A6F22F455
:102348004072196F41F480311967196F21F4803197
:1023580019671A67D4F8B430B3F5807F15D08DBBF0
:10236800D4F8B43003F44072B2F5407F1ED0404A2E
:10237800136923F47C5313613D490B6FD4F8B420DF
:10238800C2F30B0213430B678BE7FEF7F7F9074617
:10239800374B1B6F13F0020FE1D1FEF7EFF9C01BAB
:1023A80041F288339842F3D90325D8E730480269C7
:1023B80022F47C522F4901EA131313430361DBE72C
:1023C8002E466EE72E466CE7012104F10800FFF760
:1023D8004BFC0546E5B9264A536D23F03803E16FF7
:1023E8000B43536508E0012104F12800FFF7C0FC06
:1023F8000546EFE701263546236813F0020F17D08C
:10240800A36F052B2CD8DFE803F00B05240B0B0B6F
:102418002E46F1E7012104F10800FFF725FC0546E7
:102428000DBB134A536D23F00703A16F0B4353658C
:10243800236813F0040F30D0D4F89430052B00F241
:102448000F81DFE813F01F00190006011F001F00AD
:102458001F00012104F12800FFF78AFC0546DFE789
:1024680001263546E4E72E46E2E700BF0048025859
:1024780000440258CFFFFF00012104F10800FFF7D4
:10248800F3FB0546002D40F0EE80B64A936D23F02D
:102498000703D4F894100B439365236813F0200FB7
:1024A8001DD0D4F89030B3F1005F00F0F08000F256
:1024B800DF804BB1B3F1805F40F0D780002104F199
:1024C8000800FFF7D1FB0546002D40F0E780A54A3C
:1024D800536D23F0E043D4F890100B435365236801
:1024E80013F0400F1DD0D4F89C30B3F5006F00F006
:1024F800E98000F2D8804BB1B3F5806F40F0D0800E
:10250800002104F10800FFF7AFFB0546002D40F05D
:10251800E080944A936D23F4E053D4F89C100B4365
:102528009365236813F0800F1DD0D4F8A030B3F55D
:10253800804F00F0E28000F2D1804BB1B3F5005F2C
:1025480040F0C980002104F10800FFF78DFB054623
:10255800002D40F0D980834A936D23F46043D4F86A
:10256800A0100B439365236813F0080F0DD0D4F81F
:102578008430B3F5805F00F0C9807A4A536D23F444
:102588004053D4F884100B435365236813F0100F9D
:102598000DD0D4F89830B3F5807F00F0C180714A2F
:1025A800936D23F44073D4F898100B439365236814
:1025B80013F4002F1CD0D4F8A430B3F5803F00F0FA
:1025C800B980B3F5003F08D0002B40F0BA80002155
:1025D80004F10800FFF748FB0546002D40F0B480E1
:1025E800604A936D23F44033D4F8A4100B439365E9
:1025F800236813F4802F1CD0D4F88830B3F5001F5B
:1026080000F0A480B3F5401F08D0B3F5801F40F058
:10261800A480544AD36A43F40033D362002D40F0B7
:102628009F80504A536D23F44013D4F888100B430D
:102638005365236813F4803F00F0AC80236D002BB2
:1026480000F09280B3F5803F00F09C80012635466B
:10265800A0E0012104F12800FFF78AFB054611E7F5
:102668000126354619E72E4617E70126354636E78F
:10267800B3F1804F3FF428AFB3F1A04F3FF424AF3C
:10268800B3F1405F3FF420AF0126354627E702212A
:1026980004F12800FFF76CFB054615E72E461EE7F8
:1026A800012635463DE7B3F5805F3FF42FAFB3F51C
:1026B800A05F3FF42BAFB3F5406F3FF427AF01267F
:1026C80035462EE7022104F12800FFF751FB0546A5
:1026D8001CE72E4625E70126354644E7B3F5004FAB
:1026E8003FF436AFB3F5204F3FF432AFB3F5C04FE8
:1026F8003FF42EAF0126354635E7022104F12800C4
:10270800FFF736FB054623E72E462CE7022104F1A6
:102718002800FFF72DFB00283FF42FAF01262CE7F8
:10272800022104F12800FFF723FB00283FF437AF0C
:10273800012634E7022104F12800FFF719FB0546BA
:102748004BE70126354653E72E4651E7012104F1B0
:102758002800FFF70DFB054660E70126354668E7C8
:102768002E4666E700440258704AD36A43F40033A1
:10277800D36275B96D4AD36C23F48033216D0B4352
:10278800D36407E0022104F10800FFF76DFA05465B
:10279800EFE72E46236813F0005F11D1236813F486
:1027A800003F28D0D4F88030B3F5807F14D010D9FA
:1027B800B3F5007F15D0B3F5407F12D001261AE09B
:1027C800022104F12800FFF7D3FA0028E6D00126F9
:1027D800E4E733B101260EE0544AD36A43F40033E8
:1027E800D362002D69D1514A536D23F44073D4F854
:1027F80080100B435365236813F4801F06D04B4A9F
:10280800136D23F00043616F0B431365236813F0C6
:10281800805F07D0454A136923F48043D4F8B81081
:102828000B431361236813F4001F06D03F4A136D4E
:1028380023F08073E16E0B431365236813F0804F18
:1028480009D03A4B1A6922F400421A611A69D4F87D
:10285800BC100A431A612368002B06DA334AD36C8A
:1028680023F04053616D0B43D364236813F4000FC6
:1028780007D02E4A536D23F44003D4F88C100B4331
:102888005365636813F0010F19D1636813F0020FE1
:102898001ED1636813F0040F23D1636813F0080F87
:1028A80028D1636813F0100F2DD1636813F0200F3F
:1028B80032D106B101263046F8BD2E469BE70021ED
:1028C80004F10800FFF7D0F90028DED00646DCE75F
:1028D800012104F10800FFF7C7F90028D9D00646FE
:1028E800D7E7022104F10800FFF7BEF90028D4D089
:1028F8000646D2E7002104F12800FFF739FA00283C
:10290800CFD00646CDE7012104F12800FFF730FAC1
:102918000028CAD00646C8E7022104F12800FFF7BC
:1029280027FA0028C5D00126C5E700BF0044025891
:1029380008B5FFF753F9054B1B6AC3F30213044AA2
:10294800D35C03F01F03D84008BD00BF0044025801
:10295800BC3C000810B4794B9A6A9C6AC4F3053CE5
:10296800D96AC1F30011DB6BC3F3CC0301FB03F39A
:1029780014F47C3F00F0DD8002F0030207EE903A89
:10298800F8EE677A012A4BD0022A00F09880002AD4
:1029980040F0B280694B1B6813F0200F23D06749C1
:1029A8000A68C2F3C102664BD34007EE103AF8EE4C
:1029B800476A07EE10CAB8EE476A86EE867A8B6BCE
:1029C800C3F3080306EE903AF8EE666A9FED5D6A77
:1029D80067EE867A76EEA77AF7EE006A77EEA67A41
:1029E80027EE277A38E007EE10CAF8EE476A9FED1F
:1029F800566A86EE267A514B9B6BC3F3080306EEA4
:102A0800903AF8EE666A9FED4F6A67EE867A76EE40
:102A1800A77AF7EE006A77EEA67A27EE277A1BE008
:102A280007EE10CAF8EE476A9FED486A86EE267AE6
:102A3800424B9B6BC3F3080306EE903AF8EE666AC6
:102A48009FED406A67EE867A76EEA77AF7EE006A1F
:102A580077EEA67A27EE277A384A936BC3F3462394
:102A680007EE903AF8EE677AF7EE006A77EEA67A04
:102A780087EE276ABCEEC66A80ED006A936BC3F3E3
:102A8800064307EE903AF8EE677A77EEA67A87EE75
:102A9800276ABCEEC66A80ED016A936BC3F30663CE
:102AA80007EE903AF8EE677A77EEA67AC7EE276ACD
:102AB800FCEEE66AC0ED026A5DF8044B704707EE6B
:102AC80010CAF8EE476A9FED226A86EE267A1B4BFB
:102AD8009B6BC3F3080306EE903AF8EE666A9FED27
:102AE800196A67EE867A76EEA77AF7EE006A77EECD
:102AF800A67A27EE277AAFE707EE10CAF8EE476AFC
:102B08009FED126A86EE267A0C4B9B6BC3F3080383
:102B180006EE903AF8EE666A9FED0A6A67EE867AE4
:102B280076EEA77AF7EE006A77EEA67A27EE277A8E
:102B380092E70023036043608360BDE700440258C6
:102B48000090D003000000390024744C0024744A1B
:102B580020BCBE4B10B4794B9A6A9C6AC4F3055CDE
:102B6800D96AC1F300215B6CC3F3CC0301FB03F307
:102B780014F07C7F00F0DD8002F0030207EE903A4B
:102B8800F8EE677A012A4BD0022A00F09880002AD2
:102B980040F0B280694B1B6813F0200F23D06749BF
:102BA8000A68C2F3C102664BD34007EE103AF8EE4A
:102BB800476A07EE10CAB8EE476A86EE867A0B6C4B
:102BC800C3F3080306EE903AF8EE666A9FED5D6A75
:102BD80067EE867A76EEA77AF7EE006A77EEA67A3F
:102BE80027EE277A38E007EE10CAF8EE476A9FED1D
:102BF800566A86EE267A514B1B6CC3F3080306EE21
:102C0800903AF8EE666A9FED4F6A67EE867A76EE3E
:102C1800A77AF7EE006A77EEA67A27EE277A1BE006
:102C280007EE10CAF8EE476A9FED486A86EE267AE4
:102C3800424B1B6CC3F3080306EE903AF8EE666A43
:102C48009FED406A67EE867A76EEA77AF7EE006A1D
:102C580077EEA67A27EE277A384A136CC3F3462311
:102C680007EE903AF8EE677AF7EE006A77EEA67A02
:102C780087EE276ABCEEC66A80ED006A136CC3F360
:102C8800064307EE903AF8EE677A77EEA67A87EE73
:102C9800276ABCEEC66A80ED016A136CC3F306634B
:102CA80007EE903AF8EE677A77EEA67AC7EE276ACB
:102CB800FCEEE66AC0ED026A5DF8044B704707EE69
:102CC80010CAF8EE476A9FED226A86EE267A1B4BF9
:102CD8001B6CC3F3080306EE903AF8EE666A9FEDA4
:102CE800196A67EE867A76EEA77AF7EE006A77EECB
:102CF800A67A27EE277AAFE707EE10CAF8EE476AFA
:102D08009FED126A86EE267A0C4B1B6CC3F3080300
:102D180006EE903AF8EE666A9FED0A6A67EE867AE2
:102D280076EEA77AF7EE006A77EEA67A27EE277A8C
:102D380092E70023036043608360BDE700440258C4
:102D48000090D003000000390024744C0024744A19
:102D580020BCBE4B026852E8003F23F4907342E85F
:102D680000310029F6D1026802F1080353E8001F78
:102D78000D4B0B40083242E800310029F3D1C36EF5
:102D8800012B06D02023C0F88C300023C36643678C
:102D98007047026852E8003F23F0100342E8003110
:102DA8000029F6D1EEE700BFFEFFFFEF70B586B051
:102DB800044683680269134342691343C269134393
:102DC80001680868884A02401A430A602268536802
:102DD80023F44053E1680B435360A1692268834B95
:102DE8009A4201D0236A19439068814B03400B43F0
:102DF80093602268D36A23F00F03616A0B43D3629E
:102E080023687C4A934221D07B4A934200F08C800D
:102E18007A4A934200F0A280794A934200F0B58042
:102E2800784A934200F0C880774A934200F0F480D1
:102E3800764A934200F01981754A934200F02C813A
:102E48006A4A934200F03F8180223BE0714A526D0A
:102E580002F03802282A34D8DFE812F029003300BB
:102E68003300330033003300330033004D013300A7
:102E78003300330033003300330033002B003300BA
:102E88003300330033003300330033002D003300A8
:102E98003300330033003300330033002F00330096
:102EA8003300330033003300330033003100012294
:102EB80008E0082206E0102204E0202202E0402276
:102EC80000E0802249498B4200F02781E069B0F593
:102ED800004F00F0A781202A00F2FF81202A00F28B
:102EE8004982DFE812F016021C02470247021F025D
:102EF80047024702470224024702470247024702A5
:102F0800470247024702290247024702470247028F
:102F18004702470247024702470247024702470261
:102F280047024702470235023A4A526D02F0070249
:102F3800052A11D8DFE812F00600E10008000A00AF
:102F48000C000E000022BDE70822BBE71022B9E7FB
:102F58002022B7E74022B5E78022B3E72D4A526D19
:102F680002F00702052A0ED8DFE802F003C90507B8
:102F7800090B0022A6E70822A4E71022A2E72022D4
:102F8800A0E740229EE780229CE7224A526D02F089
:102F98000702052A0ED8DFE802F003B40507090B7B
:102FA80000228FE708228DE710228BE7202289E78D
:102FB800402287E7802285E7164A526D02F0070211
:102FC800052A0ED8DFE802F0039F0507090B002247
:102FD80078E7082276E7102274E7202272E7402279
:102FE80070E780226EE700BFF369FFCF000C00583E
:102FF800FFF4FF1100100140004400400048004069
:10300800004C00400050004000140140007800408F
:10301800007C0040004402587D4A526D02F038029C
:10302800282A20D8DFE802F0151F1F1F1F1F1F1FA7
:10303800711F1F1F1F1F1F1F171F1F1F1F1F1F1F4E
:10304800191F1F1F1F1F1F1F1B1F1F1F1F1F1F1F92
:103058001D00012236E7082234E7102232E7202239
:1030680030E740222EE780222CE7694A526D02F0B1
:103078000702052A0ED8DFE802F0034A0507090B04
:1030880000221FE708221DE710221BE7202219E76C
:10309800402217E7802215E75D4A526D02F00702C9
:1030A800052A0ED8DFE802F003350507090B0022D0
:1030B80008E7082206E7102204E7202202E7402258
:1030C80000E78022FEE602F50E32926D02F007025A
:1030D800052A0ED8DFE802F0031F0507090B0222B4
:1030E800F0E60822EEE61022ECE62022EAE640228C
:1030F800E8E68022E6E60422E4E60422E2E6042288
:10310800E0E60422DEE60422DCE60422DAE6042213
:10311800D8E60422D6E60422D4E6202A27D8022AB2
:10312800C0F01A81023A1E2A00F21881DFE812F074
:103138005000160156001601160116015B00160113
:103148001601160116011601160116016000160176
:1031580016011601160116011601160116011601AF
:103168001601160116011601160116016C00402AF7
:103178002CD14FF40040626A264B33F81220B0FB82
:10318800F2F3656805EB4501994200F2E980B3EB7B
:10319800053F00F2E780002633463146FDF778F810
:1031A800090241EA106100026B08C0182A4633463A
:1031B80041F10001FDF76CF8A0F54072164B9A42F8
:1031C80000F2D2802368D8603046D4E00120D2E0F3
:1031D800FFF7AEFB0028CED10020CCE003A8FFF714
:1031E800B9FB0498F6E76846FFF7B4FC0198F1E7E5
:1031F800074B1B6813F0200F08D0054B1B68C3F35F
:10320800C1030648D840B6E70548B4E70348B2E723
:1032180000440258A43C0008FFFC0F000090D003B3
:1032280000093D00202A15D8202A00F29F80DFE8F7
:1032380002F031379D9D3A9D9D9D3F9D9D9D9D9D91
:103248009D9D449D9D9D9D9D9D9D9D9D9D9D9D9DFF
:103258009D9D5000402A1BD1626A4D4B33F81230B5
:10326800B0FBF3F06268530803EB4003B3FBF2F3DF
:10327800A3F110014FF6EF72914279D89AB222F079
:103288000F02C3F3420313432268D360002072E0A5
:10329800012070E0FEF7C4FC0028DDD100206AE0C0
:1032A800FEF7D0FCF8E703A8FFF754FB0498F3E710
:1032B8006846FFF74FFC0198EEE7364B1B6813F0A2
:1032C800200F08D0334B1B68C3F3C1033248D840E2
:1032D800C2E73248C0E73048BEE7402A17D14FF46A
:1032E8000040626A2A4B33F81230B0FBF3F063688F
:1032F80000EB5300B0FBF3F0A0F110024FF6EF73B0
:103308009A4242D8236880B2D860002033E0012076
:1033180031E0FEF785FC0028E3D100202BE0FEF722
:1033280091FCF8E703A8FFF715FB0498F3E7684654
:10333800FFF710FC0198EEE7164B1B6813F0200FFF
:1033480008D0144B1B68C3F3C1031348D840C8E71F
:103358001248C6E71048C4E701200CE001200AE043
:10336800012008E0012006E0012004E0012002E03D
:10337800012000E001200123A4F86A30A4F8683095
:1033880000236367A36706B070BD0120F3E700BFA1
:10339800A43C0008004402580090D00300093D00F6
:1033A800836A13F0080F06D00268536823F40043B9
:1033B800816B0B435360836A13F0010F06D00268D8
:1033C800536823F40033C16A0B435360836A13F0D4
:1033D800020F06D00268536823F48033016B0B4355
:1033E8005360836A13F0040F06D00268536823F40D
:1033F8008023416B0B435360836A13F0100F06D090
:103408000268936823F48053C16B0B439360836A0B
:1034180013F0200F06D00268936823F40053016C60
:103428000B439360836A13F0400F0AD00268536815
:1034380023F48013416C0B435360436CB3F5801F36
:103448000BD0836A13F0800F06D00268536823F408
:103458000023C16C0B43536070470268536823F420
:10346800C003816C0B435360EBE72DE9F843054635
:103478000E4617469946DDF820802B68DC6936EA47
:1034880004040CBF01240024BC423AD1B8F1FF3F28
:10349800F3D0FDF773F9A0EB0900404534D8B8F133
:1034A800000F33D02B681A6812F0040FE5D0B6F17C
:1034B800400218BF0122802EDFD0002ADDD0DA6951
:1034C80012F0080F11D1DA6912F4006FD5D04FF459
:1034D80000621A622846FFF73DFC2023C5F89030A9
:1034E800002385F8843003200CE008241C62284659
:1034F800FFF730FCC5F89040002385F884300120A0
:1035080000E00020BDE8F8830320FBE70320F9E78B
:1035180030B583B004460023C0F89030FDF72EF98B
:1035280005462268126812F0080F10D123681B683C
:1035380013F0040F28D12023C4F88830C4F88C3045
:103548000020E066206784F8840003B030BD6FF087
:103558007E430093034600224FF400112046FFF7F4
:1035680084FF0028E2D0226852E8003F23F080035D
:1035780042E800310029F6D12023C4F8883000231E
:1035880084F884300320E0E76FF07E4300932B46F5
:1035980000224FF480012046FFF767FF0028CAD0B9
:1035A800226852E8003F23F4907342E80031002972
:1035B800F6D1226802F1080353E8003F23F0010323
:1035C800083242E800310029F3D12023C4F88C30B6
:1035D800002384F884300320B7E778B310B5044695
:1035E800D0F888300BB32423C4F8883022681368D5
:1035F80023F001031360A36AE3B92046FFF7D6FB63
:10360800012811D02268536823F49043536022683C
:10361800936823F02A0393602268136843F0010338
:1036280013602046FFF774FF10BD80F88430FDF763
:103638000BFDD8E72046FFF7B3FEDEE70120704711
:10364800FEE7FEE7FEE7FEE7FEE7704770477047D4
:1036580008B5FDF787F808BD314AD2F8883043F439
:103668007003C2F888302F4B1B6803F00F03062B3A
:1036780006D82C4A136823F00F0343F0070313609E
:10368800294B1A6842F001021A6000221A6119686F
:10369800264A0A401A60234B1B6813F0080F06D00D
:1036A800204A136823F00F0343F0070313601E4BEF
:1036B80000229A61DA611A621D4999621D49D9622C
:1036C8001D4919635A639963DA6319645A6419685E
:1036D80021F4802119601A66184B1B686FF30F03D9
:1036E800B3F1005F03D2164B0122C3F808210E4B39
:1036F800D3F8D43013F4805F10D10B4BD3F8D42017
:1037080042F48052C3F8D4200E4A43F2D201116029
:10371800D3F8D42022F48052C3F8D420704700BFD5
:1037280000ED00E000200052004402587FEDF6EA68
:10373800000202020000FF01800201010010005C8B
:103748000080005100400052054AD36843F002034C
:10375800D360034B5B6813F4005FFAD0704700BF77
:103768000048025810B5B8B0002133913491359112
:103778003691379102ACC022204600F0C8F80122E9
:103788000023CDE902232046FEF776FB002847D127
:10379800264BD3F8F02042F01002C3F8F020D3F8FB
:1037A800F02002F010020092009AD3F8E02042F0D4
:1037B8000202C3F8E020D3F8E03003F002030193DB
:1037C800019B4FF4404333930223349300243594F0
:1037D800032336930423379333A91548FDF79EF83E
:1037E8001448154B03604FF4E13343608460C460B0
:1037F80004610C2343618461C4610462FFF7EDFE38
:1038080088B9012200212520FDF716F82520FDF7AB
:1038180023F8094A136843F02003136038B010BD39
:10382800FCF798FEB4E7FCF795FEEAE70044025877
:1038380000040258640100200010014008B5052268
:1038480009490A4800F06BF818B9094B01221A70A7
:1038580008BD03220749054800F061F80028F7D1A0
:10386800034B00221A70F3E7CC3C0008200100202B
:1038780018010020D43C00080A4B5B6ADBB20A49F5
:103888000A780A48835401320A700A2B00D070471C
:103898000123074A13700A4600211170054A137064
:1038A800F5E700BF00100140600100202001002062
:1038B8006101002062010020DFF838D0FFF744FFE3
:1038C800FFF7CAFE0C480D490D4A002302E0D45800
:1038D800C4500433C4188C42F9D30A4A0A4C002352
:1038E80001E013600432A242FBD300F02BF8FCF78E
:1038F800B3FE7047000002200000002010000020E6
:10390800E83C000810000020F8010020FEE702440F
:103918000346934200D1704703F8011BF9E710B53D
:103928006AB10139841810F8012B11F8013F9A4245
:1039380003D1A04201D0002AF5D1D01A10BD1046FB
:10394800FCE7000070B50D4B0D4D5B1B9C1000266D
:10395800A64209D100F096F90A4D0B4B5B1B9C104F
:103968000026A64205D170BD55F8043B984701369C
:10397800EEE755F8043B98470136F2E7E03C0008CB
:10398800E03C0008E03C0008E43C00082DE9F04772
:10399800089D0F4604468C46002B48D18A4216469D
:1039A80061D9B2FA82F34BB1C3F1200201FA03FCE8
:1039B80020FA02F29E4042EA0C0C9C404FEA164E56
:1039C800B7B2BCFBFEF1220C0EFB11CC42EA0C4252
:1039D80001FB07F0904209D9B21801F1FF3C80F0D1
:1039E800EE80904240F2EB8002393244121AA4B2BF
:1039F800B2FBFEF00EFB102244EA024400FB07F77C
:103A0800A74209D9341900F1FF3280F0DA80A742C1
:103A180040F2D7803444023840EA0140E41B0021D8
:103A28001DB1DC400023C5E90043BDE8F0878B42A7
:103A380006D90DB1C5E9000100210846BDE8F087A7
:103A4800B3FA83F1002948D1BB4202D3824200F283
:103A58000781841A67EB030201209446002DE4D005
:103A6800C5E9004CE1E7002A00F09280B2FA82F33F
:103A7800002B40F0A8808A1A4FEA164E1FFA86FCDF
:103A88000121200CB2FBFEF70EFB172240EA02428E
:103A98000CFB07F0904207D9B21807F1FF3802D2A1
:103AA800904200F2E2804746121AA4B2B2FBFEF03E
:103AB8000EFB102244EA02440CFB00FCA44507D983
:103AC800341900F1FF3202D2A44500F2CB8010462F
:103AD800A4EB0C0440EA0740A2E7C1F120068B40A2
:103AE80022FA06FC4CEA030C07FA01F420FA06F362
:103AF800F7404FEA1C49234300FA01F81FFA8CFEED
:103B0800B7FBF9F01C0C09FB107744EA074400FBEB
:103B18000EF7A74202FA01F20AD91CEB040400F1DD
:103B2800FF3A80F09B80A74240F2988002386444B4
:103B3800E41B9FB2B4FBF9F309FB134447EA0444BE
:103B480003FB0EFEA64509D91CEB040403F1FF375D
:103B580080F08280A6457FD9023B644443EA004056
:103B6800A4EB0E04A0FB02E7BC427346B94663D33C
:103B780060D05DB1B8EB030264EB090404FA06F601
:103B880022FA01F31E43CC40C5E9006400214CE74A
:103B98006208480842EAC1710B0C43EA00438AB242
:103BA80042EA0342B3FBF6F1E407B4463746B646A9
:103BB8001F23B0FBF6F0D21B41EA004161E76146E2
:103BC80014E7104628E7C3F1200120FA01F29E40CD
:103BD80027FA01F19F403A434FEA164E1FFA86FC36
:103BE800B1FBFEF70EFB1710110C41EA004107FB71
:103BF8000CF8884504FA03F43AD9711807F1FF3034
:103C080001D288451FD8A1EB0801B1FBFEF808FBDB
:103C18000CF70EFB181192B242EA0142BA422FD2B7
:103C2800B21808F1FF31C6D2BA42C4D2A8F10201D3
:103C38003244C0E7F0459CD2BEEB020367EB0C07A9
:103C48000138B94695E7A6EB08084144B81EB1FB10
:103C5800FEF808FB0CF7DCE73B467FE7504667E7D2
:103C68000846FBE63444023832E7023F32441BE799
:103C7800A1EB08013846B1FBFEF808FB0CF7C8E7D2
:103C8800414698E7F8B500BFF8BC08BC9E467047A7
:0C3C9800F8B500BFF8BC08BC9E467047A1
:103CA400010002000400060008000A000C001000D5
:103CB4002000400080000001000000000102030415
:103CC400010203040607080973746172740000009A
:043CD400656E6400B5
:083CD800BCFCFF7F01000000AD
:043CE000F1020008E5
:043CE400CD02000805
:103CE80001000000100000000090D0030090D003F5
:04000005080038C1F6
:00000001FF
